{
	"MMDLSFinalGrade.sol": {
		"MMDLSFinalGrade": {
			"abi": [
				{
					"inputs": [],
					"stateMutability": "nonpayable",
					"type": "constructor"
				},
				{
					"anonymous": false,
					"inputs": [
						{
							"indexed": true,
							"internalType": "address",
							"name": "student",
							"type": "address"
						},
						{
							"indexed": false,
							"internalType": "uint256",
							"name": "finalGrade",
							"type": "uint256"
						}
					],
					"name": "FinalGradeComputed",
					"type": "event"
				},
				{
					"anonymous": false,
					"inputs": [
						{
							"indexed": true,
							"internalType": "address",
							"name": "student",
							"type": "address"
						},
						{
							"indexed": false,
							"internalType": "uint256[8]",
							"name": "grades",
							"type": "uint256[8]"
						}
					],
					"name": "GradesAssigned",
					"type": "event"
				},
				{
					"inputs": [
						{
							"internalType": "address",
							"name": "student",
							"type": "address"
						},
						{
							"internalType": "uint256[8]",
							"name": "_grades",
							"type": "uint256[8]"
						}
					],
					"name": "assignGrades",
					"outputs": [],
					"stateMutability": "nonpayable",
					"type": "function"
				},
				{
					"inputs": [
						{
							"internalType": "address",
							"name": "student",
							"type": "address"
						}
					],
					"name": "computeFinalGrade",
					"outputs": [],
					"stateMutability": "nonpayable",
					"type": "function"
				},
				{
					"inputs": [
						{
							"internalType": "address",
							"name": "",
							"type": "address"
						}
					],
					"name": "finalGrades",
					"outputs": [
						{
							"internalType": "uint256",
							"name": "",
							"type": "uint256"
						}
					],
					"stateMutability": "view",
					"type": "function"
				},
				{
					"inputs": [
						{
							"internalType": "address",
							"name": "",
							"type": "address"
						},
						{
							"internalType": "uint256",
							"name": "",
							"type": "uint256"
						}
					],
					"name": "grades",
					"outputs": [
						{
							"internalType": "uint256",
							"name": "",
							"type": "uint256"
						}
					],
					"stateMutability": "view",
					"type": "function"
				},
				{
					"inputs": [],
					"name": "professor",
					"outputs": [
						{
							"internalType": "address",
							"name": "",
							"type": "address"
						}
					],
					"stateMutability": "view",
					"type": "function"
				}
			],
			"devdoc": {
				"kind": "dev",
				"methods": {},
				"version": 1
			},
			"evm": {
				"assembly": "    /* \"MMDLSFinalGrade.sol\":57:3041  contract MMDLSFinalGrade {... */\n  mstore(0x40, 0x80)\n    /* \"MMDLSFinalGrade.sol\":765:818  constructor() {... */\n  callvalue\n  dup1\n  iszero\n  tag_1\n  jumpi\n  0x00\n  dup1\n  revert\ntag_1:\n  pop\n    /* \"MMDLSFinalGrade.sol\":801:811  msg.sender */\n  caller\n    /* \"MMDLSFinalGrade.sol\":789:798  professor */\n  0x00\n  dup1\n    /* \"MMDLSFinalGrade.sol\":789:811  professor = msg.sender */\n  0x0100\n  exp\n  dup2\n  sload\n  dup2\n  0xffffffffffffffffffffffffffffffffffffffff\n  mul\n  not\n  and\n  swap1\n  dup4\n  0xffffffffffffffffffffffffffffffffffffffff\n  and\n  mul\n  or\n  swap1\n  sstore\n  pop\n    /* \"MMDLSFinalGrade.sol\":57:3041  contract MMDLSFinalGrade {... */\n  dataSize(sub_0)\n  dup1\n  dataOffset(sub_0)\n  0x00\n  codecopy\n  0x00\n  return\nstop\n\nsub_0: assembly {\n        /* \"MMDLSFinalGrade.sol\":57:3041  contract MMDLSFinalGrade {... */\n      mstore(0x40, 0x80)\n      callvalue\n      dup1\n      iszero\n      tag_1\n      jumpi\n      0x00\n      dup1\n      revert\n    tag_1:\n      pop\n      jumpi(tag_2, lt(calldatasize, 0x04))\n      shr(0xe0, calldataload(0x00))\n      dup1\n      0x09ee57a5\n      eq\n      tag_3\n      jumpi\n      dup1\n      0x0e5b35b3\n      eq\n      tag_4\n      jumpi\n      dup1\n      0x5113940d\n      eq\n      tag_5\n      jumpi\n      dup1\n      0x554fec0e\n      eq\n      tag_6\n      jumpi\n      dup1\n      0x9257e04b\n      eq\n      tag_7\n      jumpi\n    tag_2:\n      0x00\n      dup1\n      revert\n        /* \"MMDLSFinalGrade.sol\":202:246  mapping(address => uint256[8]) public grades */\n    tag_3:\n      tag_8\n      0x04\n      dup1\n      calldatasize\n      sub\n      dup2\n      add\n      swap1\n      tag_9\n      swap2\n      swap1\n      tag_10\n      jump\t// in\n    tag_9:\n      tag_11\n      jump\t// in\n    tag_8:\n      mload(0x40)\n      tag_12\n      swap2\n      swap1\n      tag_13\n      jump\t// in\n    tag_12:\n      mload(0x40)\n      dup1\n      swap2\n      sub\n      swap1\n      return\n        /* \"MMDLSFinalGrade.sol\":1153:2498  function computeFinalGrade(address student) public onlyProfessor {... */\n    tag_4:\n      tag_14\n      0x04\n      dup1\n      calldatasize\n      sub\n      dup2\n      add\n      swap1\n      tag_15\n      swap2\n      swap1\n      tag_16\n      jump\t// in\n    tag_15:\n      tag_17\n      jump\t// in\n    tag_14:\n      stop\n        /* \"MMDLSFinalGrade.sol\":119:143  address public professor */\n    tag_5:\n      tag_18\n      tag_19\n      jump\t// in\n    tag_18:\n      mload(0x40)\n      tag_20\n      swap2\n      swap1\n      tag_21\n      jump\t// in\n    tag_20:\n      mload(0x40)\n      dup1\n      swap2\n      sub\n      swap1\n      return\n        /* \"MMDLSFinalGrade.sol\":313:359  mapping(address => uint256) public finalGrades */\n    tag_6:\n      tag_22\n      0x04\n      dup1\n      calldatasize\n      sub\n      dup2\n      add\n      swap1\n      tag_23\n      swap2\n      swap1\n      tag_16\n      jump\t// in\n    tag_23:\n      tag_24\n      jump\t// in\n    tag_22:\n      mload(0x40)\n      tag_25\n      swap2\n      swap1\n      tag_13\n      jump\t// in\n    tag_25:\n      mload(0x40)\n      dup1\n      swap2\n      sub\n      swap1\n      return\n        /* \"MMDLSFinalGrade.sol\":858:1102  function assignGrades(address student, uint256[8] memory _grades) public onlyProfessor {... */\n    tag_7:\n      tag_26\n      0x04\n      dup1\n      calldatasize\n      sub\n      dup2\n      add\n      swap1\n      tag_27\n      swap2\n      swap1\n      tag_28\n      jump\t// in\n    tag_27:\n      tag_29\n      jump\t// in\n    tag_26:\n      stop\n        /* \"MMDLSFinalGrade.sol\":202:246  mapping(address => uint256[8]) public grades */\n    tag_11:\n      mstore(0x20, 0x01)\n      dup2\n      0x00\n      mstore\n      keccak256(0x00, 0x40)\n      dup2\n      0x08\n      dup2\n      lt\n      tag_30\n      jumpi\n      0x00\n      dup1\n      revert\n    tag_30:\n      add\n      0x00\n      swap2\n      pop\n      swap2\n      pop\n      pop\n      sload\n      dup2\n      jump\t// out\n        /* \"MMDLSFinalGrade.sol\":1153:2498  function computeFinalGrade(address student) public onlyProfessor {... */\n    tag_17:\n        /* \"MMDLSFinalGrade.sol\":636:645  professor */\n      0x00\n      dup1\n      sload\n      swap1\n      0x0100\n      exp\n      swap1\n      div\n      0xffffffffffffffffffffffffffffffffffffffff\n      and\n        /* \"MMDLSFinalGrade.sol\":622:645  msg.sender == professor */\n      0xffffffffffffffffffffffffffffffffffffffff\n      and\n        /* \"MMDLSFinalGrade.sol\":622:632  msg.sender */\n      caller\n        /* \"MMDLSFinalGrade.sol\":622:645  msg.sender == professor */\n      0xffffffffffffffffffffffffffffffffffffffff\n      and\n      eq\n        /* \"MMDLSFinalGrade.sol\":614:693  require(msg.sender == professor, \"Only the professor can perform this action.\") */\n      tag_33\n      jumpi\n      mload(0x40)\n      0x08c379a000000000000000000000000000000000000000000000000000000000\n      dup2\n      mstore\n      0x04\n      add\n      tag_34\n      swap1\n      tag_35\n      jump\t// in\n    tag_34:\n      mload(0x40)\n      dup1\n      swap2\n      sub\n      swap1\n      revert\n    tag_33:\n        /* \"MMDLSFinalGrade.sol\":1251:1252  0 */\n      0x00\n        /* \"MMDLSFinalGrade.sol\":1232:1253  student != address(0) */\n      0xffffffffffffffffffffffffffffffffffffffff\n      and\n        /* \"MMDLSFinalGrade.sol\":1232:1239  student */\n      dup2\n        /* \"MMDLSFinalGrade.sol\":1232:1253  student != address(0) */\n      0xffffffffffffffffffffffffffffffffffffffff\n      and\n      sub\n        /* \"MMDLSFinalGrade.sol\":1224:1282  require(student != address(0), \"Invalid student address.\") */\n      tag_37\n      jumpi\n      mload(0x40)\n      0x08c379a000000000000000000000000000000000000000000000000000000000\n      dup2\n      mstore\n      0x04\n      add\n      tag_38\n      swap1\n      tag_39\n      jump\t// in\n    tag_38:\n      mload(0x40)\n      dup1\n      swap2\n      sub\n      swap1\n      revert\n    tag_37:\n        /* \"MMDLSFinalGrade.sol\":1289:1320  uint256[8] memory studentGrades */\n      0x00\n        /* \"MMDLSFinalGrade.sol\":1323:1329  grades */\n      0x01\n        /* \"MMDLSFinalGrade.sol\":1323:1338  grades[student] */\n      0x00\n        /* \"MMDLSFinalGrade.sol\":1330:1337  student */\n      dup4\n        /* \"MMDLSFinalGrade.sol\":1323:1338  grades[student] */\n      0xffffffffffffffffffffffffffffffffffffffff\n      and\n      0xffffffffffffffffffffffffffffffffffffffff\n      and\n      dup2\n      mstore\n      0x20\n      add\n      swap1\n      dup2\n      mstore\n      0x20\n      add\n      0x00\n      keccak256\n        /* \"MMDLSFinalGrade.sol\":1289:1338  uint256[8] memory studentGrades = grades[student] */\n      0x08\n      dup1\n      0x20\n      mul\n      mload(0x40)\n      swap1\n      dup2\n      add\n      0x40\n      mstore\n      dup1\n      swap3\n      swap2\n      swap1\n      dup3\n      0x08\n      dup1\n      iszero\n      tag_40\n      jumpi\n      0x20\n      mul\n      dup3\n      add\n      swap2\n    tag_41:\n      dup2\n      sload\n      dup2\n      mstore\n      0x20\n      add\n      swap1\n      0x01\n      add\n      swap1\n      dup1\n      dup4\n      gt\n      tag_41\n      jumpi\n    tag_40:\n      pop\n      pop\n      pop\n      pop\n      pop\n      swap1\n      pop\n        /* \"MMDLSFinalGrade.sol\":1345:1356  uint256 HA1 */\n      0x00\n        /* \"MMDLSFinalGrade.sol\":1359:1372  studentGrades */\n      dup2\n        /* \"MMDLSFinalGrade.sol\":1373:1374  0 */\n      0x00\n        /* \"MMDLSFinalGrade.sol\":1359:1375  studentGrades[0] */\n      0x08\n      dup2\n      lt\n      tag_42\n      jumpi\n      tag_43\n      tag_44\n      jump\t// in\n    tag_43:\n    tag_42:\n      0x20\n      mul\n      add\n      mload\n        /* \"MMDLSFinalGrade.sol\":1345:1375  uint256 HA1 = studentGrades[0] */\n      swap1\n      pop\n        /* \"MMDLSFinalGrade.sol\":1381:1392  uint256 HA2 */\n      0x00\n        /* \"MMDLSFinalGrade.sol\":1395:1408  studentGrades */\n      dup3\n        /* \"MMDLSFinalGrade.sol\":1409:1410  1 */\n      0x01\n        /* \"MMDLSFinalGrade.sol\":1395:1411  studentGrades[1] */\n      0x08\n      dup2\n      lt\n      tag_45\n      jumpi\n      tag_46\n      tag_44\n      jump\t// in\n    tag_46:\n    tag_45:\n      0x20\n      mul\n      add\n      mload\n        /* \"MMDLSFinalGrade.sol\":1381:1411  uint256 HA2 = studentGrades[1] */\n      swap1\n      pop\n        /* \"MMDLSFinalGrade.sol\":1417:1428  uint256 HA3 */\n      0x00\n        /* \"MMDLSFinalGrade.sol\":1431:1444  studentGrades */\n      dup4\n        /* \"MMDLSFinalGrade.sol\":1445:1446  2 */\n      0x02\n        /* \"MMDLSFinalGrade.sol\":1431:1447  studentGrades[2] */\n      0x08\n      dup2\n      lt\n      tag_47\n      jumpi\n      tag_48\n      tag_44\n      jump\t// in\n    tag_48:\n    tag_47:\n      0x20\n      mul\n      add\n      mload\n        /* \"MMDLSFinalGrade.sol\":1417:1447  uint256 HA3 = studentGrades[2] */\n      swap1\n      pop\n        /* \"MMDLSFinalGrade.sol\":1453:1464  uint256 HA4 */\n      0x00\n        /* \"MMDLSFinalGrade.sol\":1467:1480  studentGrades */\n      dup5\n        /* \"MMDLSFinalGrade.sol\":1481:1482  3 */\n      0x03\n        /* \"MMDLSFinalGrade.sol\":1467:1483  studentGrades[3] */\n      0x08\n      dup2\n      lt\n      tag_49\n      jumpi\n      tag_50\n      tag_44\n      jump\t// in\n    tag_50:\n    tag_49:\n      0x20\n      mul\n      add\n      mload\n        /* \"MMDLSFinalGrade.sol\":1453:1483  uint256 HA4 = studentGrades[3] */\n      swap1\n      pop\n        /* \"MMDLSFinalGrade.sol\":1489:1500  uint256 HA5 */\n      0x00\n        /* \"MMDLSFinalGrade.sol\":1503:1516  studentGrades */\n      dup6\n        /* \"MMDLSFinalGrade.sol\":1517:1518  4 */\n      0x04\n        /* \"MMDLSFinalGrade.sol\":1503:1519  studentGrades[4] */\n      0x08\n      dup2\n      lt\n      tag_51\n      jumpi\n      tag_52\n      tag_44\n      jump\t// in\n    tag_52:\n    tag_51:\n      0x20\n      mul\n      add\n      mload\n        /* \"MMDLSFinalGrade.sol\":1489:1519  uint256 HA5 = studentGrades[4] */\n      swap1\n      pop\n        /* \"MMDLSFinalGrade.sol\":1525:1536  uint256 HA6 */\n      0x00\n        /* \"MMDLSFinalGrade.sol\":1539:1552  studentGrades */\n      dup7\n        /* \"MMDLSFinalGrade.sol\":1553:1554  5 */\n      0x05\n        /* \"MMDLSFinalGrade.sol\":1539:1555  studentGrades[5] */\n      0x08\n      dup2\n      lt\n      tag_53\n      jumpi\n      tag_54\n      tag_44\n      jump\t// in\n    tag_54:\n    tag_53:\n      0x20\n      mul\n      add\n      mload\n        /* \"MMDLSFinalGrade.sol\":1525:1555  uint256 HA6 = studentGrades[5] */\n      swap1\n      pop\n        /* \"MMDLSFinalGrade.sol\":1561:1578  uint256 ExamTerm1 */\n      0x00\n        /* \"MMDLSFinalGrade.sol\":1581:1594  studentGrades */\n      dup8\n        /* \"MMDLSFinalGrade.sol\":1595:1596  6 */\n      0x06\n        /* \"MMDLSFinalGrade.sol\":1581:1597  studentGrades[6] */\n      0x08\n      dup2\n      lt\n      tag_55\n      jumpi\n      tag_56\n      tag_44\n      jump\t// in\n    tag_56:\n    tag_55:\n      0x20\n      mul\n      add\n      mload\n        /* \"MMDLSFinalGrade.sol\":1561:1597  uint256 ExamTerm1 = studentGrades[6] */\n      swap1\n      pop\n        /* \"MMDLSFinalGrade.sol\":1603:1620  uint256 ExamFinal */\n      0x00\n        /* \"MMDLSFinalGrade.sol\":1623:1636  studentGrades */\n      dup9\n        /* \"MMDLSFinalGrade.sol\":1637:1638  7 */\n      0x07\n        /* \"MMDLSFinalGrade.sol\":1623:1639  studentGrades[7] */\n      0x08\n      dup2\n      lt\n      tag_57\n      jumpi\n      tag_58\n      tag_44\n      jump\t// in\n    tag_58:\n    tag_57:\n      0x20\n      mul\n      add\n      mload\n        /* \"MMDLSFinalGrade.sol\":1603:1639  uint256 ExamFinal = studentGrades[7] */\n      swap1\n      pop\n        /* \"MMDLSFinalGrade.sol\":1690:1705  uint256 maxTerm */\n      0x00\n        /* \"MMDLSFinalGrade.sol\":1725:1734  ExamTerm1 */\n      dup3\n        /* \"MMDLSFinalGrade.sol\":1721:1722  2 */\n      0x02\n        /* \"MMDLSFinalGrade.sol\":1721:1734  2 * ExamTerm1 */\n      tag_59\n      swap2\n      swap1\n      tag_60\n      jump\t// in\n    tag_59:\n        /* \"MMDLSFinalGrade.sol\":1715:1718  HA2 */\n      dup9\n        /* \"MMDLSFinalGrade.sol\":1709:1712  HA1 */\n      dup11\n        /* \"MMDLSFinalGrade.sol\":1709:1718  HA1 + HA2 */\n      tag_61\n      swap2\n      swap1\n      tag_62\n      jump\t// in\n    tag_61:\n        /* \"MMDLSFinalGrade.sol\":1709:1734  HA1 + HA2 > 2 * ExamTerm1 */\n      gt\n        /* \"MMDLSFinalGrade.sol\":1708:1767  (HA1 + HA2 > 2 * ExamTerm1) ? (HA1 + HA2) : (2 * ExamTerm1) */\n      tag_63\n      jumpi\n        /* \"MMDLSFinalGrade.sol\":1757:1766  ExamTerm1 */\n      dup3\n        /* \"MMDLSFinalGrade.sol\":1753:1754  2 */\n      0x02\n        /* \"MMDLSFinalGrade.sol\":1753:1766  2 * ExamTerm1 */\n      tag_64\n      swap2\n      swap1\n      tag_60\n      jump\t// in\n    tag_64:\n        /* \"MMDLSFinalGrade.sol\":1708:1767  (HA1 + HA2 > 2 * ExamTerm1) ? (HA1 + HA2) : (2 * ExamTerm1) */\n      jump(tag_65)\n    tag_63:\n        /* \"MMDLSFinalGrade.sol\":1745:1748  HA2 */\n      dup8\n        /* \"MMDLSFinalGrade.sol\":1739:1742  HA1 */\n      dup10\n        /* \"MMDLSFinalGrade.sol\":1739:1748  HA1 + HA2 */\n      tag_66\n      swap2\n      swap1\n      tag_62\n      jump\t// in\n    tag_66:\n        /* \"MMDLSFinalGrade.sol\":1708:1767  (HA1 + HA2 > 2 * ExamTerm1) ? (HA1 + HA2) : (2 * ExamTerm1) */\n    tag_65:\n        /* \"MMDLSFinalGrade.sol\":1690:1767  uint256 maxTerm = (HA1 + HA2 > 2 * ExamTerm1) ? (HA1 + HA2) : (2 * ExamTerm1) */\n      swap1\n      pop\n        /* \"MMDLSFinalGrade.sol\":1833:1853  uint256 intermediate */\n      0x00\n        /* \"MMDLSFinalGrade.sol\":1907:1909  10 */\n      0x0a\n        /* \"MMDLSFinalGrade.sol\":1902:1903  5 */\n      0x05\n        /* \"MMDLSFinalGrade.sol\":1898:1899  6 */\n      0x06\n        /* \"MMDLSFinalGrade.sol\":1893:1895  10 */\n      0x0a\n        /* \"MMDLSFinalGrade.sol\":1886:1889  HA6 */\n      dup9\n        /* \"MMDLSFinalGrade.sol\":1880:1883  HA5 */\n      dup11\n        /* \"MMDLSFinalGrade.sol\":1874:1877  HA4 */\n      dup13\n        /* \"MMDLSFinalGrade.sol\":1868:1871  HA3 */\n      dup15\n        /* \"MMDLSFinalGrade.sol\":1858:1865  maxTerm */\n      dup10\n        /* \"MMDLSFinalGrade.sol\":1858:1871  maxTerm + HA3 */\n      tag_67\n      swap2\n      swap1\n      tag_62\n      jump\t// in\n    tag_67:\n        /* \"MMDLSFinalGrade.sol\":1858:1877  maxTerm + HA3 + HA4 */\n      tag_68\n      swap2\n      swap1\n      tag_62\n      jump\t// in\n    tag_68:\n        /* \"MMDLSFinalGrade.sol\":1858:1883  maxTerm + HA3 + HA4 + HA5 */\n      tag_69\n      swap2\n      swap1\n      tag_62\n      jump\t// in\n    tag_69:\n        /* \"MMDLSFinalGrade.sol\":1858:1889  maxTerm + HA3 + HA4 + HA5 + HA6 */\n      tag_70\n      swap2\n      swap1\n      tag_62\n      jump\t// in\n    tag_70:\n        /* \"MMDLSFinalGrade.sol\":1857:1895  (maxTerm + HA3 + HA4 + HA5 + HA6) * 10 */\n      tag_71\n      swap2\n      swap1\n      tag_60\n      jump\t// in\n    tag_71:\n        /* \"MMDLSFinalGrade.sol\":1857:1899  (maxTerm + HA3 + HA4 + HA5 + HA6) * 10 / 6 */\n      tag_72\n      swap2\n      swap1\n      tag_73\n      jump\t// in\n    tag_72:\n        /* \"MMDLSFinalGrade.sol\":1857:1903  (maxTerm + HA3 + HA4 + HA5 + HA6) * 10 / 6 + 5 */\n      tag_74\n      swap2\n      swap1\n      tag_62\n      jump\t// in\n    tag_74:\n        /* \"MMDLSFinalGrade.sol\":1856:1909  ((maxTerm + HA3 + HA4 + HA5 + HA6) * 10 / 6 + 5) / 10 */\n      tag_75\n      swap2\n      swap1\n      tag_73\n      jump\t// in\n    tag_75:\n        /* \"MMDLSFinalGrade.sol\":1833:1909  uint256 intermediate = ((maxTerm + HA3 + HA4 + HA5 + HA6) * 10 / 6 + 5) / 10 */\n      swap1\n      pop\n        /* \"MMDLSFinalGrade.sol\":1934:1936  10 */\n      0x0a\n        /* \"MMDLSFinalGrade.sol\":1919:1931  intermediate */\n      dup2\n        /* \"MMDLSFinalGrade.sol\":1919:1936  intermediate > 10 */\n      gt\n        /* \"MMDLSFinalGrade.sol\":1915:1985  if (intermediate > 10) {... */\n      iszero\n      tag_76\n      jumpi\n        /* \"MMDLSFinalGrade.sol\":1963:1965  10 */\n      0x0a\n        /* \"MMDLSFinalGrade.sol\":1948:1965  intermediate = 10 */\n      swap1\n      pop\n        /* \"MMDLSFinalGrade.sol\":1915:1985  if (intermediate > 10) {... */\n    tag_76:\n        /* \"MMDLSFinalGrade.sol\":1991:2009  uint256 finalGrade */\n      0x00\n        /* \"MMDLSFinalGrade.sol\":2032:2033  0 */\n      dup1\n        /* \"MMDLSFinalGrade.sol\":2020:2029  ExamFinal */\n      dup5\n        /* \"MMDLSFinalGrade.sol\":2020:2033  ExamFinal > 0 */\n      gt\n        /* \"MMDLSFinalGrade.sol\":2016:2375  if (ExamFinal > 0) {... */\n      iszero\n      tag_77\n      jumpi\n        /* \"MMDLSFinalGrade.sol\":2162:2164  10 */\n      0x0a\n        /* \"MMDLSFinalGrade.sol\":2157:2158  5 */\n      0x05\n        /* \"MMDLSFinalGrade.sol\":2152:2154  10 */\n      0x0a\n        /* \"MMDLSFinalGrade.sol\":2147:2149  10 */\n      dup1\n        /* \"MMDLSFinalGrade.sol\":2134:2143  ExamFinal */\n      dup8\n        /* \"MMDLSFinalGrade.sol\":2130:2131  6 */\n      0x06\n        /* \"MMDLSFinalGrade.sol\":2130:2143  6 * ExamFinal */\n      tag_78\n      swap2\n      swap1\n      tag_60\n      jump\t// in\n    tag_78:\n        /* \"MMDLSFinalGrade.sol\":2115:2127  intermediate */\n      dup7\n        /* \"MMDLSFinalGrade.sol\":2111:2112  4 */\n      0x04\n        /* \"MMDLSFinalGrade.sol\":2111:2127  4 * intermediate */\n      tag_79\n      swap2\n      swap1\n      tag_60\n      jump\t// in\n    tag_79:\n        /* \"MMDLSFinalGrade.sol\":2111:2143  4 * intermediate + 6 * ExamFinal */\n      tag_80\n      swap2\n      swap1\n      tag_62\n      jump\t// in\n    tag_80:\n        /* \"MMDLSFinalGrade.sol\":2110:2149  (4 * intermediate + 6 * ExamFinal) * 10 */\n      tag_81\n      swap2\n      swap1\n      tag_60\n      jump\t// in\n    tag_81:\n        /* \"MMDLSFinalGrade.sol\":2110:2154  (4 * intermediate + 6 * ExamFinal) * 10 / 10 */\n      tag_82\n      swap2\n      swap1\n      tag_73\n      jump\t// in\n    tag_82:\n        /* \"MMDLSFinalGrade.sol\":2110:2158  (4 * intermediate + 6 * ExamFinal) * 10 / 10 + 5 */\n      tag_83\n      swap2\n      swap1\n      tag_62\n      jump\t// in\n    tag_83:\n        /* \"MMDLSFinalGrade.sol\":2109:2164  ((4 * intermediate + 6 * ExamFinal) * 10 / 10 + 5) / 10 */\n      tag_84\n      swap2\n      swap1\n      tag_73\n      jump\t// in\n    tag_84:\n        /* \"MMDLSFinalGrade.sol\":2096:2164  finalGrade = ((4 * intermediate + 6 * ExamFinal) * 10 / 10 + 5) / 10 */\n      swap1\n      pop\n        /* \"MMDLSFinalGrade.sol\":2191:2193  10 */\n      0x0a\n        /* \"MMDLSFinalGrade.sol\":2178:2188  finalGrade */\n      dup2\n        /* \"MMDLSFinalGrade.sol\":2178:2193  finalGrade > 10 */\n      gt\n        /* \"MMDLSFinalGrade.sol\":2174:2248  if (finalGrade > 10) {... */\n      iszero\n      tag_85\n      jumpi\n        /* \"MMDLSFinalGrade.sol\":2222:2224  10 */\n      0x0a\n        /* \"MMDLSFinalGrade.sol\":2209:2224  finalGrade = 10 */\n      swap1\n      pop\n        /* \"MMDLSFinalGrade.sol\":2174:2248  if (finalGrade > 10) {... */\n    tag_85:\n        /* \"MMDLSFinalGrade.sol\":2016:2375  if (ExamFinal > 0) {... */\n      jump(tag_86)\n    tag_77:\n        /* \"MMDLSFinalGrade.sol\":2347:2348  6 */\n      0x06\n        /* \"MMDLSFinalGrade.sol\":2331:2343  intermediate */\n      dup3\n        /* \"MMDLSFinalGrade.sol\":2331:2348  intermediate >= 6 */\n      lt\n      iszero\n        /* \"MMDLSFinalGrade.sol\":2330:2368  (intermediate >= 6) ? intermediate : 0 */\n      tag_87\n      jumpi\n        /* \"MMDLSFinalGrade.sol\":2367:2368  0 */\n      0x00\n        /* \"MMDLSFinalGrade.sol\":2330:2368  (intermediate >= 6) ? intermediate : 0 */\n      jump(tag_88)\n    tag_87:\n        /* \"MMDLSFinalGrade.sol\":2352:2364  intermediate */\n      dup2\n        /* \"MMDLSFinalGrade.sol\":2330:2368  (intermediate >= 6) ? intermediate : 0 */\n    tag_88:\n        /* \"MMDLSFinalGrade.sol\":2317:2368  finalGrade = (intermediate >= 6) ? intermediate : 0 */\n      swap1\n      pop\n        /* \"MMDLSFinalGrade.sol\":2016:2375  if (ExamFinal > 0) {... */\n    tag_86:\n        /* \"MMDLSFinalGrade.sol\":2430:2440  finalGrade */\n      dup1\n        /* \"MMDLSFinalGrade.sol\":2407:2418  finalGrades */\n      0x02\n        /* \"MMDLSFinalGrade.sol\":2407:2427  finalGrades[student] */\n      0x00\n        /* \"MMDLSFinalGrade.sol\":2419:2426  student */\n      dup16\n        /* \"MMDLSFinalGrade.sol\":2407:2427  finalGrades[student] */\n      0xffffffffffffffffffffffffffffffffffffffff\n      and\n      0xffffffffffffffffffffffffffffffffffffffff\n      and\n      dup2\n      mstore\n      0x20\n      add\n      swap1\n      dup2\n      mstore\n      0x20\n      add\n      0x00\n      keccak256\n        /* \"MMDLSFinalGrade.sol\":2407:2440  finalGrades[student] = finalGrade */\n      dup2\n      swap1\n      sstore\n      pop\n        /* \"MMDLSFinalGrade.sol\":2471:2478  student */\n      dup13\n        /* \"MMDLSFinalGrade.sol\":2452:2491  FinalGradeComputed(student, finalGrade) */\n      0xffffffffffffffffffffffffffffffffffffffff\n      and\n      0xac80656a956c0ba44c39f72601bfb63ca77157f4a544bb9cea7bbc770ffb7412\n        /* \"MMDLSFinalGrade.sol\":2480:2490  finalGrade */\n      dup3\n        /* \"MMDLSFinalGrade.sol\":2452:2491  FinalGradeComputed(student, finalGrade) */\n      mload(0x40)\n      tag_89\n      swap2\n      swap1\n      tag_13\n      jump\t// in\n    tag_89:\n      mload(0x40)\n      dup1\n      swap2\n      sub\n      swap1\n      log2\n        /* \"MMDLSFinalGrade.sol\":1218:2498  {... */\n      pop\n      pop\n      pop\n      pop\n      pop\n      pop\n      pop\n      pop\n      pop\n      pop\n      pop\n      pop\n        /* \"MMDLSFinalGrade.sol\":1153:2498  function computeFinalGrade(address student) public onlyProfessor {... */\n      pop\n      jump\t// out\n        /* \"MMDLSFinalGrade.sol\":119:143  address public professor */\n    tag_19:\n      0x00\n      dup1\n      sload\n      swap1\n      0x0100\n      exp\n      swap1\n      div\n      0xffffffffffffffffffffffffffffffffffffffff\n      and\n      dup2\n      jump\t// out\n        /* \"MMDLSFinalGrade.sol\":313:359  mapping(address => uint256) public finalGrades */\n    tag_24:\n      mstore(0x20, 0x02)\n      dup1\n      0x00\n      mstore\n      keccak256(0x00, 0x40)\n      0x00\n      swap2\n      pop\n      swap1\n      pop\n      sload\n      dup2\n      jump\t// out\n        /* \"MMDLSFinalGrade.sol\":858:1102  function assignGrades(address student, uint256[8] memory _grades) public onlyProfessor {... */\n    tag_29:\n        /* \"MMDLSFinalGrade.sol\":636:645  professor */\n      0x00\n      dup1\n      sload\n      swap1\n      0x0100\n      exp\n      swap1\n      div\n      0xffffffffffffffffffffffffffffffffffffffff\n      and\n        /* \"MMDLSFinalGrade.sol\":622:645  msg.sender == professor */\n      0xffffffffffffffffffffffffffffffffffffffff\n      and\n        /* \"MMDLSFinalGrade.sol\":622:632  msg.sender */\n      caller\n        /* \"MMDLSFinalGrade.sol\":622:645  msg.sender == professor */\n      0xffffffffffffffffffffffffffffffffffffffff\n      and\n      eq\n        /* \"MMDLSFinalGrade.sol\":614:693  require(msg.sender == professor, \"Only the professor can perform this action.\") */\n      tag_91\n      jumpi\n      mload(0x40)\n      0x08c379a000000000000000000000000000000000000000000000000000000000\n      dup2\n      mstore\n      0x04\n      add\n      tag_92\n      swap1\n      tag_35\n      jump\t// in\n    tag_92:\n      mload(0x40)\n      dup1\n      swap2\n      sub\n      swap1\n      revert\n    tag_91:\n        /* \"MMDLSFinalGrade.sol\":982:983  0 */\n      0x00\n        /* \"MMDLSFinalGrade.sol\":963:984  student != address(0) */\n      0xffffffffffffffffffffffffffffffffffffffff\n      and\n        /* \"MMDLSFinalGrade.sol\":963:970  student */\n      dup3\n        /* \"MMDLSFinalGrade.sol\":963:984  student != address(0) */\n      0xffffffffffffffffffffffffffffffffffffffff\n      and\n      sub\n        /* \"MMDLSFinalGrade.sol\":955:1013  require(student != address(0), \"Invalid student address.\") */\n      tag_94\n      jumpi\n      mload(0x40)\n      0x08c379a000000000000000000000000000000000000000000000000000000000\n      dup2\n      mstore\n      0x04\n      add\n      tag_95\n      swap1\n      tag_39\n      jump\t// in\n    tag_95:\n      mload(0x40)\n      dup1\n      swap2\n      sub\n      swap1\n      revert\n    tag_94:\n        /* \"MMDLSFinalGrade.sol\":1041:1048  _grades */\n      dup1\n        /* \"MMDLSFinalGrade.sol\":1023:1029  grades */\n      0x01\n        /* \"MMDLSFinalGrade.sol\":1023:1038  grades[student] */\n      0x00\n        /* \"MMDLSFinalGrade.sol\":1030:1037  student */\n      dup5\n        /* \"MMDLSFinalGrade.sol\":1023:1038  grades[student] */\n      0xffffffffffffffffffffffffffffffffffffffff\n      and\n      0xffffffffffffffffffffffffffffffffffffffff\n      and\n      dup2\n      mstore\n      0x20\n      add\n      swap1\n      dup2\n      mstore\n      0x20\n      add\n      0x00\n      keccak256\n        /* \"MMDLSFinalGrade.sol\":1023:1048  grades[student] = _grades */\n      swap1\n      0x08\n      tag_96\n      swap3\n      swap2\n      swap1\n      tag_97\n      jump\t// in\n    tag_96:\n      pop\n        /* \"MMDLSFinalGrade.sol\":1078:1085  student */\n      dup2\n        /* \"MMDLSFinalGrade.sol\":1063:1095  GradesAssigned(student, _grades) */\n      0xffffffffffffffffffffffffffffffffffffffff\n      and\n      0x14db761f3fcdaad8975837aa53665a05b9c99eb3b953ec9e7ce93acbb770dcc0\n        /* \"MMDLSFinalGrade.sol\":1087:1094  _grades */\n      dup3\n        /* \"MMDLSFinalGrade.sol\":1063:1095  GradesAssigned(student, _grades) */\n      mload(0x40)\n      tag_98\n      swap2\n      swap1\n      tag_99\n      jump\t// in\n    tag_98:\n      mload(0x40)\n      dup1\n      swap2\n      sub\n      swap1\n      log2\n        /* \"MMDLSFinalGrade.sol\":858:1102  function assignGrades(address student, uint256[8] memory _grades) public onlyProfessor {... */\n      pop\n      pop\n      jump\t// out\n    tag_97:\n      dup3\n      0x08\n      dup2\n      add\n      swap3\n      dup3\n      iszero\n      tag_100\n      jumpi\n      swap2\n      0x20\n      mul\n      dup3\n      add\n    tag_101:\n      dup3\n      dup2\n      gt\n      iszero\n      tag_102\n      jumpi\n      dup3\n      mload\n      dup3\n      sstore\n      swap2\n      0x20\n      add\n      swap2\n      swap1\n      0x01\n      add\n      swap1\n      jump(tag_101)\n    tag_102:\n    tag_100:\n      pop\n      swap1\n      pop\n      tag_103\n      swap2\n      swap1\n      tag_104\n      jump\t// in\n    tag_103:\n      pop\n      swap1\n      jump\t// out\n    tag_104:\n    tag_105:\n      dup1\n      dup3\n      gt\n      iszero\n      tag_106\n      jumpi\n      0x00\n      dup2\n      0x00\n      swap1\n      sstore\n      pop\n      0x01\n      add\n      jump(tag_105)\n    tag_106:\n      pop\n      swap1\n      jump\t// out\n        /* \"#utility.yul\":7:82   */\n    tag_107:\n        /* \"#utility.yul\":40:46   */\n      0x00\n        /* \"#utility.yul\":73:75   */\n      0x40\n        /* \"#utility.yul\":67:76   */\n      mload\n        /* \"#utility.yul\":57:76   */\n      swap1\n      pop\n        /* \"#utility.yul\":7:82   */\n      swap1\n      jump\t// out\n        /* \"#utility.yul\":88:205   */\n    tag_108:\n        /* \"#utility.yul\":197:198   */\n      0x00\n        /* \"#utility.yul\":194:195   */\n      dup1\n        /* \"#utility.yul\":187:199   */\n      revert\n        /* \"#utility.yul\":334:460   */\n    tag_110:\n        /* \"#utility.yul\":371:378   */\n      0x00\n        /* \"#utility.yul\":411:453   */\n      0xffffffffffffffffffffffffffffffffffffffff\n        /* \"#utility.yul\":404:409   */\n      dup3\n        /* \"#utility.yul\":400:454   */\n      and\n        /* \"#utility.yul\":389:454   */\n      swap1\n      pop\n        /* \"#utility.yul\":334:460   */\n      swap2\n      swap1\n      pop\n      jump\t// out\n        /* \"#utility.yul\":466:562   */\n    tag_111:\n        /* \"#utility.yul\":503:510   */\n      0x00\n        /* \"#utility.yul\":532:556   */\n      tag_148\n        /* \"#utility.yul\":550:555   */\n      dup3\n        /* \"#utility.yul\":532:556   */\n      tag_110\n      jump\t// in\n    tag_148:\n        /* \"#utility.yul\":521:556   */\n      swap1\n      pop\n        /* \"#utility.yul\":466:562   */\n      swap2\n      swap1\n      pop\n      jump\t// out\n        /* \"#utility.yul\":568:690   */\n    tag_112:\n        /* \"#utility.yul\":641:665   */\n      tag_150\n        /* \"#utility.yul\":659:664   */\n      dup2\n        /* \"#utility.yul\":641:665   */\n      tag_111\n      jump\t// in\n    tag_150:\n        /* \"#utility.yul\":634:639   */\n      dup2\n        /* \"#utility.yul\":631:666   */\n      eq\n        /* \"#utility.yul\":621:684   */\n      tag_151\n      jumpi\n        /* \"#utility.yul\":680:681   */\n      0x00\n        /* \"#utility.yul\":677:678   */\n      dup1\n        /* \"#utility.yul\":670:682   */\n      revert\n        /* \"#utility.yul\":621:684   */\n    tag_151:\n        /* \"#utility.yul\":568:690   */\n      pop\n      jump\t// out\n        /* \"#utility.yul\":696:835   */\n    tag_113:\n        /* \"#utility.yul\":742:747   */\n      0x00\n        /* \"#utility.yul\":780:786   */\n      dup2\n        /* \"#utility.yul\":767:787   */\n      calldataload\n        /* \"#utility.yul\":758:787   */\n      swap1\n      pop\n        /* \"#utility.yul\":796:829   */\n      tag_153\n        /* \"#utility.yul\":823:828   */\n      dup2\n        /* \"#utility.yul\":796:829   */\n      tag_112\n      jump\t// in\n    tag_153:\n        /* \"#utility.yul\":696:835   */\n      swap3\n      swap2\n      pop\n      pop\n      jump\t// out\n        /* \"#utility.yul\":841:918   */\n    tag_114:\n        /* \"#utility.yul\":878:885   */\n      0x00\n        /* \"#utility.yul\":907:912   */\n      dup2\n        /* \"#utility.yul\":896:912   */\n      swap1\n      pop\n        /* \"#utility.yul\":841:918   */\n      swap2\n      swap1\n      pop\n      jump\t// out\n        /* \"#utility.yul\":924:1046   */\n    tag_115:\n        /* \"#utility.yul\":997:1021   */\n      tag_156\n        /* \"#utility.yul\":1015:1020   */\n      dup2\n        /* \"#utility.yul\":997:1021   */\n      tag_114\n      jump\t// in\n    tag_156:\n        /* \"#utility.yul\":990:995   */\n      dup2\n        /* \"#utility.yul\":987:1022   */\n      eq\n        /* \"#utility.yul\":977:1040   */\n      tag_157\n      jumpi\n        /* \"#utility.yul\":1036:1037   */\n      0x00\n        /* \"#utility.yul\":1033:1034   */\n      dup1\n        /* \"#utility.yul\":1026:1038   */\n      revert\n        /* \"#utility.yul\":977:1040   */\n    tag_157:\n        /* \"#utility.yul\":924:1046   */\n      pop\n      jump\t// out\n        /* \"#utility.yul\":1052:1191   */\n    tag_116:\n        /* \"#utility.yul\":1098:1103   */\n      0x00\n        /* \"#utility.yul\":1136:1142   */\n      dup2\n        /* \"#utility.yul\":1123:1143   */\n      calldataload\n        /* \"#utility.yul\":1114:1143   */\n      swap1\n      pop\n        /* \"#utility.yul\":1152:1185   */\n      tag_159\n        /* \"#utility.yul\":1179:1184   */\n      dup2\n        /* \"#utility.yul\":1152:1185   */\n      tag_115\n      jump\t// in\n    tag_159:\n        /* \"#utility.yul\":1052:1191   */\n      swap3\n      swap2\n      pop\n      pop\n      jump\t// out\n        /* \"#utility.yul\":1197:1671   */\n    tag_10:\n        /* \"#utility.yul\":1265:1271   */\n      0x00\n        /* \"#utility.yul\":1273:1279   */\n      dup1\n        /* \"#utility.yul\":1322:1324   */\n      0x40\n        /* \"#utility.yul\":1310:1319   */\n      dup4\n        /* \"#utility.yul\":1301:1308   */\n      dup6\n        /* \"#utility.yul\":1297:1320   */\n      sub\n        /* \"#utility.yul\":1293:1325   */\n      slt\n        /* \"#utility.yul\":1290:1409   */\n      iszero\n      tag_161\n      jumpi\n        /* \"#utility.yul\":1328:1407   */\n      tag_162\n      tag_108\n      jump\t// in\n    tag_162:\n        /* \"#utility.yul\":1290:1409   */\n    tag_161:\n        /* \"#utility.yul\":1448:1449   */\n      0x00\n        /* \"#utility.yul\":1473:1526   */\n      tag_163\n        /* \"#utility.yul\":1518:1525   */\n      dup6\n        /* \"#utility.yul\":1509:1515   */\n      dup3\n        /* \"#utility.yul\":1498:1507   */\n      dup7\n        /* \"#utility.yul\":1494:1516   */\n      add\n        /* \"#utility.yul\":1473:1526   */\n      tag_113\n      jump\t// in\n    tag_163:\n        /* \"#utility.yul\":1463:1526   */\n      swap3\n      pop\n        /* \"#utility.yul\":1419:1536   */\n      pop\n        /* \"#utility.yul\":1575:1577   */\n      0x20\n        /* \"#utility.yul\":1601:1654   */\n      tag_164\n        /* \"#utility.yul\":1646:1653   */\n      dup6\n        /* \"#utility.yul\":1637:1643   */\n      dup3\n        /* \"#utility.yul\":1626:1635   */\n      dup7\n        /* \"#utility.yul\":1622:1644   */\n      add\n        /* \"#utility.yul\":1601:1654   */\n      tag_116\n      jump\t// in\n    tag_164:\n        /* \"#utility.yul\":1591:1654   */\n      swap2\n      pop\n        /* \"#utility.yul\":1546:1664   */\n      pop\n        /* \"#utility.yul\":1197:1671   */\n      swap3\n      pop\n      swap3\n      swap1\n      pop\n      jump\t// out\n        /* \"#utility.yul\":1677:1795   */\n    tag_117:\n        /* \"#utility.yul\":1764:1788   */\n      tag_166\n        /* \"#utility.yul\":1782:1787   */\n      dup2\n        /* \"#utility.yul\":1764:1788   */\n      tag_114\n      jump\t// in\n    tag_166:\n        /* \"#utility.yul\":1759:1762   */\n      dup3\n        /* \"#utility.yul\":1752:1789   */\n      mstore\n        /* \"#utility.yul\":1677:1795   */\n      pop\n      pop\n      jump\t// out\n        /* \"#utility.yul\":1801:2023   */\n    tag_13:\n        /* \"#utility.yul\":1894:1898   */\n      0x00\n        /* \"#utility.yul\":1932:1934   */\n      0x20\n        /* \"#utility.yul\":1921:1930   */\n      dup3\n        /* \"#utility.yul\":1917:1935   */\n      add\n        /* \"#utility.yul\":1909:1935   */\n      swap1\n      pop\n        /* \"#utility.yul\":1945:2016   */\n      tag_168\n        /* \"#utility.yul\":2013:2014   */\n      0x00\n        /* \"#utility.yul\":2002:2011   */\n      dup4\n        /* \"#utility.yul\":1998:2015   */\n      add\n        /* \"#utility.yul\":1989:1995   */\n      dup5\n        /* \"#utility.yul\":1945:2016   */\n      tag_117\n      jump\t// in\n    tag_168:\n        /* \"#utility.yul\":1801:2023   */\n      swap3\n      swap2\n      pop\n      pop\n      jump\t// out\n        /* \"#utility.yul\":2029:2358   */\n    tag_16:\n        /* \"#utility.yul\":2088:2094   */\n      0x00\n        /* \"#utility.yul\":2137:2139   */\n      0x20\n        /* \"#utility.yul\":2125:2134   */\n      dup3\n        /* \"#utility.yul\":2116:2123   */\n      dup5\n        /* \"#utility.yul\":2112:2135   */\n      sub\n        /* \"#utility.yul\":2108:2140   */\n      slt\n        /* \"#utility.yul\":2105:2224   */\n      iszero\n      tag_170\n      jumpi\n        /* \"#utility.yul\":2143:2222   */\n      tag_171\n      tag_108\n      jump\t// in\n    tag_171:\n        /* \"#utility.yul\":2105:2224   */\n    tag_170:\n        /* \"#utility.yul\":2263:2264   */\n      0x00\n        /* \"#utility.yul\":2288:2341   */\n      tag_172\n        /* \"#utility.yul\":2333:2340   */\n      dup5\n        /* \"#utility.yul\":2324:2330   */\n      dup3\n        /* \"#utility.yul\":2313:2322   */\n      dup6\n        /* \"#utility.yul\":2309:2331   */\n      add\n        /* \"#utility.yul\":2288:2341   */\n      tag_113\n      jump\t// in\n    tag_172:\n        /* \"#utility.yul\":2278:2341   */\n      swap2\n      pop\n        /* \"#utility.yul\":2234:2351   */\n      pop\n        /* \"#utility.yul\":2029:2358   */\n      swap3\n      swap2\n      pop\n      pop\n      jump\t// out\n        /* \"#utility.yul\":2364:2482   */\n    tag_118:\n        /* \"#utility.yul\":2451:2475   */\n      tag_174\n        /* \"#utility.yul\":2469:2474   */\n      dup2\n        /* \"#utility.yul\":2451:2475   */\n      tag_111\n      jump\t// in\n    tag_174:\n        /* \"#utility.yul\":2446:2449   */\n      dup3\n        /* \"#utility.yul\":2439:2476   */\n      mstore\n        /* \"#utility.yul\":2364:2482   */\n      pop\n      pop\n      jump\t// out\n        /* \"#utility.yul\":2488:2710   */\n    tag_21:\n        /* \"#utility.yul\":2581:2585   */\n      0x00\n        /* \"#utility.yul\":2619:2621   */\n      0x20\n        /* \"#utility.yul\":2608:2617   */\n      dup3\n        /* \"#utility.yul\":2604:2622   */\n      add\n        /* \"#utility.yul\":2596:2622   */\n      swap1\n      pop\n        /* \"#utility.yul\":2632:2703   */\n      tag_176\n        /* \"#utility.yul\":2700:2701   */\n      0x00\n        /* \"#utility.yul\":2689:2698   */\n      dup4\n        /* \"#utility.yul\":2685:2702   */\n      add\n        /* \"#utility.yul\":2676:2682   */\n      dup5\n        /* \"#utility.yul\":2632:2703   */\n      tag_118\n      jump\t// in\n    tag_176:\n        /* \"#utility.yul\":2488:2710   */\n      swap3\n      swap2\n      pop\n      pop\n      jump\t// out\n        /* \"#utility.yul\":2716:2833   */\n    tag_119:\n        /* \"#utility.yul\":2825:2826   */\n      0x00\n        /* \"#utility.yul\":2822:2823   */\n      dup1\n        /* \"#utility.yul\":2815:2827   */\n      revert\n        /* \"#utility.yul\":2839:2941   */\n    tag_120:\n        /* \"#utility.yul\":2880:2886   */\n      0x00\n        /* \"#utility.yul\":2931:2933   */\n      0x1f\n        /* \"#utility.yul\":2927:2934   */\n      not\n        /* \"#utility.yul\":2922:2924   */\n      0x1f\n        /* \"#utility.yul\":2915:2920   */\n      dup4\n        /* \"#utility.yul\":2911:2925   */\n      add\n        /* \"#utility.yul\":2907:2935   */\n      and\n        /* \"#utility.yul\":2897:2935   */\n      swap1\n      pop\n        /* \"#utility.yul\":2839:2941   */\n      swap2\n      swap1\n      pop\n      jump\t// out\n        /* \"#utility.yul\":2947:3127   */\n    tag_121:\n        /* \"#utility.yul\":2995:3072   */\n      0x4e487b7100000000000000000000000000000000000000000000000000000000\n        /* \"#utility.yul\":2992:2993   */\n      0x00\n        /* \"#utility.yul\":2985:3073   */\n      mstore\n        /* \"#utility.yul\":3092:3096   */\n      0x41\n        /* \"#utility.yul\":3089:3090   */\n      0x04\n        /* \"#utility.yul\":3082:3097   */\n      mstore\n        /* \"#utility.yul\":3116:3120   */\n      0x24\n        /* \"#utility.yul\":3113:3114   */\n      0x00\n        /* \"#utility.yul\":3106:3121   */\n      revert\n        /* \"#utility.yul\":3133:3414   */\n    tag_122:\n        /* \"#utility.yul\":3216:3243   */\n      tag_181\n        /* \"#utility.yul\":3238:3242   */\n      dup3\n        /* \"#utility.yul\":3216:3243   */\n      tag_120\n      jump\t// in\n    tag_181:\n        /* \"#utility.yul\":3208:3214   */\n      dup2\n        /* \"#utility.yul\":3204:3244   */\n      add\n        /* \"#utility.yul\":3346:3352   */\n      dup2\n        /* \"#utility.yul\":3334:3344   */\n      dup2\n        /* \"#utility.yul\":3331:3353   */\n      lt\n        /* \"#utility.yul\":3310:3328   */\n      0xffffffffffffffff\n        /* \"#utility.yul\":3298:3308   */\n      dup3\n        /* \"#utility.yul\":3295:3329   */\n      gt\n        /* \"#utility.yul\":3292:3354   */\n      or\n        /* \"#utility.yul\":3289:3377   */\n      iszero\n      tag_182\n      jumpi\n        /* \"#utility.yul\":3357:3375   */\n      tag_183\n      tag_121\n      jump\t// in\n    tag_183:\n        /* \"#utility.yul\":3289:3377   */\n    tag_182:\n        /* \"#utility.yul\":3397:3407   */\n      dup1\n        /* \"#utility.yul\":3393:3395   */\n      0x40\n        /* \"#utility.yul\":3386:3408   */\n      mstore\n        /* \"#utility.yul\":3176:3414   */\n      pop\n        /* \"#utility.yul\":3133:3414   */\n      pop\n      pop\n      jump\t// out\n        /* \"#utility.yul\":3420:3549   */\n    tag_123:\n        /* \"#utility.yul\":3454:3460   */\n      0x00\n        /* \"#utility.yul\":3481:3501   */\n      tag_185\n      tag_107\n      jump\t// in\n    tag_185:\n        /* \"#utility.yul\":3471:3501   */\n      swap1\n      pop\n        /* \"#utility.yul\":3510:3543   */\n      tag_186\n        /* \"#utility.yul\":3538:3542   */\n      dup3\n        /* \"#utility.yul\":3530:3536   */\n      dup3\n        /* \"#utility.yul\":3510:3543   */\n      tag_122\n      jump\t// in\n    tag_186:\n        /* \"#utility.yul\":3420:3549   */\n      swap2\n      swap1\n      pop\n      jump\t// out\n        /* \"#utility.yul\":3555:3804   */\n    tag_124:\n        /* \"#utility.yul\":3630:3634   */\n      0x00\n        /* \"#utility.yul\":3720:3738   */\n      0xffffffffffffffff\n        /* \"#utility.yul\":3712:3718   */\n      dup3\n        /* \"#utility.yul\":3709:3739   */\n      gt\n        /* \"#utility.yul\":3706:3762   */\n      iszero\n      tag_188\n      jumpi\n        /* \"#utility.yul\":3742:3760   */\n      tag_189\n      tag_121\n      jump\t// in\n    tag_189:\n        /* \"#utility.yul\":3706:3762   */\n    tag_188:\n        /* \"#utility.yul\":3792:3796   */\n      0x20\n        /* \"#utility.yul\":3784:3790   */\n      dup3\n        /* \"#utility.yul\":3780:3797   */\n      mul\n        /* \"#utility.yul\":3772:3797   */\n      swap1\n      pop\n        /* \"#utility.yul\":3555:3804   */\n      swap2\n      swap1\n      pop\n      jump\t// out\n        /* \"#utility.yul\":3810:3927   */\n    tag_125:\n        /* \"#utility.yul\":3919:3920   */\n      0x00\n        /* \"#utility.yul\":3916:3917   */\n      dup1\n        /* \"#utility.yul\":3909:3921   */\n      revert\n        /* \"#utility.yul\":3951:4594   */\n    tag_126:\n        /* \"#utility.yul\":4045:4050   */\n      0x00\n        /* \"#utility.yul\":4070:4149   */\n      tag_192\n        /* \"#utility.yul\":4086:4148   */\n      tag_193\n        /* \"#utility.yul\":4141:4147   */\n      dup5\n        /* \"#utility.yul\":4086:4148   */\n      tag_124\n      jump\t// in\n    tag_193:\n        /* \"#utility.yul\":4070:4149   */\n      tag_123\n      jump\t// in\n    tag_192:\n        /* \"#utility.yul\":4061:4149   */\n      swap1\n      pop\n        /* \"#utility.yul\":4169:4174   */\n      dup1\n        /* \"#utility.yul\":4222:4226   */\n      0x20\n        /* \"#utility.yul\":4214:4220   */\n      dup5\n        /* \"#utility.yul\":4210:4227   */\n      mul\n        /* \"#utility.yul\":4202:4208   */\n      dup4\n        /* \"#utility.yul\":4198:4228   */\n      add\n        /* \"#utility.yul\":4251:4254   */\n      dup6\n        /* \"#utility.yul\":4243:4249   */\n      dup2\n        /* \"#utility.yul\":4240:4255   */\n      gt\n        /* \"#utility.yul\":4237:4359   */\n      iszero\n      tag_194\n      jumpi\n        /* \"#utility.yul\":4270:4349   */\n      tag_195\n      tag_125\n      jump\t// in\n    tag_195:\n        /* \"#utility.yul\":4237:4359   */\n    tag_194:\n        /* \"#utility.yul\":4385:4391   */\n      dup4\n        /* \"#utility.yul\":4368:4588   */\n    tag_196:\n        /* \"#utility.yul\":4402:4408   */\n      dup2\n        /* \"#utility.yul\":4397:4400   */\n      dup2\n        /* \"#utility.yul\":4394:4409   */\n      lt\n        /* \"#utility.yul\":4368:4588   */\n      iszero\n      tag_198\n      jumpi\n        /* \"#utility.yul\":4477:4480   */\n      dup1\n        /* \"#utility.yul\":4506:4543   */\n      tag_199\n        /* \"#utility.yul\":4539:4542   */\n      dup9\n        /* \"#utility.yul\":4527:4537   */\n      dup3\n        /* \"#utility.yul\":4506:4543   */\n      tag_116\n      jump\t// in\n    tag_199:\n        /* \"#utility.yul\":4501:4504   */\n      dup5\n        /* \"#utility.yul\":4494:4544   */\n      mstore\n        /* \"#utility.yul\":4573:4577   */\n      0x20\n        /* \"#utility.yul\":4568:4571   */\n      dup5\n        /* \"#utility.yul\":4564:4578   */\n      add\n        /* \"#utility.yul\":4557:4578   */\n      swap4\n      pop\n        /* \"#utility.yul\":4444:4588   */\n      pop\n        /* \"#utility.yul\":4428:4432   */\n      0x20\n        /* \"#utility.yul\":4423:4426   */\n      dup2\n        /* \"#utility.yul\":4419:4433   */\n      add\n        /* \"#utility.yul\":4412:4433   */\n      swap1\n      pop\n        /* \"#utility.yul\":4368:4588   */\n      jump(tag_196)\n    tag_198:\n        /* \"#utility.yul\":4372:4393   */\n      pop\n        /* \"#utility.yul\":4051:4594   */\n      pop\n      pop\n        /* \"#utility.yul\":3951:4594   */\n      swap4\n      swap3\n      pop\n      pop\n      pop\n      jump\t// out\n        /* \"#utility.yul\":4618:4957   */\n    tag_127:\n        /* \"#utility.yul\":4687:4692   */\n      0x00\n        /* \"#utility.yul\":4736:4739   */\n      dup3\n        /* \"#utility.yul\":4729:4733   */\n      0x1f\n        /* \"#utility.yul\":4721:4727   */\n      dup4\n        /* \"#utility.yul\":4717:4734   */\n      add\n        /* \"#utility.yul\":4713:4740   */\n      slt\n        /* \"#utility.yul\":4703:4825   */\n      tag_201\n      jumpi\n        /* \"#utility.yul\":4744:4823   */\n      tag_202\n      tag_119\n      jump\t// in\n    tag_202:\n        /* \"#utility.yul\":4703:4825   */\n    tag_201:\n        /* \"#utility.yul\":4848:4852   */\n      0x08\n        /* \"#utility.yul\":4870:4951   */\n      tag_203\n        /* \"#utility.yul\":4947:4950   */\n      dup5\n        /* \"#utility.yul\":4939:4945   */\n      dup3\n        /* \"#utility.yul\":4931:4937   */\n      dup6\n        /* \"#utility.yul\":4870:4951   */\n      tag_126\n      jump\t// in\n    tag_203:\n        /* \"#utility.yul\":4861:4951   */\n      swap2\n      pop\n        /* \"#utility.yul\":4693:4957   */\n      pop\n        /* \"#utility.yul\":4618:4957   */\n      swap3\n      swap2\n      pop\n      pop\n      jump\t// out\n        /* \"#utility.yul\":4963:5484   */\n    tag_28:\n        /* \"#utility.yul\":5054:5060   */\n      0x00\n        /* \"#utility.yul\":5062:5068   */\n      dup1\n        /* \"#utility.yul\":5111:5114   */\n      0x0120\n        /* \"#utility.yul\":5099:5108   */\n      dup4\n        /* \"#utility.yul\":5090:5097   */\n      dup6\n        /* \"#utility.yul\":5086:5109   */\n      sub\n        /* \"#utility.yul\":5082:5115   */\n      slt\n        /* \"#utility.yul\":5079:5199   */\n      iszero\n      tag_205\n      jumpi\n        /* \"#utility.yul\":5118:5197   */\n      tag_206\n      tag_108\n      jump\t// in\n    tag_206:\n        /* \"#utility.yul\":5079:5199   */\n    tag_205:\n        /* \"#utility.yul\":5238:5239   */\n      0x00\n        /* \"#utility.yul\":5263:5316   */\n      tag_207\n        /* \"#utility.yul\":5308:5315   */\n      dup6\n        /* \"#utility.yul\":5299:5305   */\n      dup3\n        /* \"#utility.yul\":5288:5297   */\n      dup7\n        /* \"#utility.yul\":5284:5306   */\n      add\n        /* \"#utility.yul\":5263:5316   */\n      tag_113\n      jump\t// in\n    tag_207:\n        /* \"#utility.yul\":5253:5316   */\n      swap3\n      pop\n        /* \"#utility.yul\":5209:5326   */\n      pop\n        /* \"#utility.yul\":5365:5367   */\n      0x20\n        /* \"#utility.yul\":5391:5467   */\n      tag_208\n        /* \"#utility.yul\":5459:5466   */\n      dup6\n        /* \"#utility.yul\":5450:5456   */\n      dup3\n        /* \"#utility.yul\":5439:5448   */\n      dup7\n        /* \"#utility.yul\":5435:5457   */\n      add\n        /* \"#utility.yul\":5391:5467   */\n      tag_127\n      jump\t// in\n    tag_208:\n        /* \"#utility.yul\":5381:5467   */\n      swap2\n      pop\n        /* \"#utility.yul\":5336:5477   */\n      pop\n        /* \"#utility.yul\":4963:5484   */\n      swap3\n      pop\n      swap3\n      swap1\n      pop\n      jump\t// out\n        /* \"#utility.yul\":5490:5659   */\n    tag_128:\n        /* \"#utility.yul\":5574:5585   */\n      0x00\n        /* \"#utility.yul\":5608:5614   */\n      dup3\n        /* \"#utility.yul\":5603:5606   */\n      dup3\n        /* \"#utility.yul\":5596:5615   */\n      mstore\n        /* \"#utility.yul\":5648:5652   */\n      0x20\n        /* \"#utility.yul\":5643:5646   */\n      dup3\n        /* \"#utility.yul\":5639:5653   */\n      add\n        /* \"#utility.yul\":5624:5653   */\n      swap1\n      pop\n        /* \"#utility.yul\":5490:5659   */\n      swap3\n      swap2\n      pop\n      pop\n      jump\t// out\n        /* \"#utility.yul\":5665:5895   */\n    tag_129:\n        /* \"#utility.yul\":5805:5839   */\n      0x4f6e6c79207468652070726f666573736f722063616e20706572666f726d2074\n        /* \"#utility.yul\":5801:5802   */\n      0x00\n        /* \"#utility.yul\":5793:5799   */\n      dup3\n        /* \"#utility.yul\":5789:5803   */\n      add\n        /* \"#utility.yul\":5782:5840   */\n      mstore\n        /* \"#utility.yul\":5874:5887   */\n      0x68697320616374696f6e2e000000000000000000000000000000000000000000\n        /* \"#utility.yul\":5869:5871   */\n      0x20\n        /* \"#utility.yul\":5861:5867   */\n      dup3\n        /* \"#utility.yul\":5857:5872   */\n      add\n        /* \"#utility.yul\":5850:5888   */\n      mstore\n        /* \"#utility.yul\":5665:5895   */\n      pop\n      jump\t// out\n        /* \"#utility.yul\":5901:6267   */\n    tag_130:\n        /* \"#utility.yul\":6043:6046   */\n      0x00\n        /* \"#utility.yul\":6064:6131   */\n      tag_212\n        /* \"#utility.yul\":6128:6130   */\n      0x2b\n        /* \"#utility.yul\":6123:6126   */\n      dup4\n        /* \"#utility.yul\":6064:6131   */\n      tag_128\n      jump\t// in\n    tag_212:\n        /* \"#utility.yul\":6057:6131   */\n      swap2\n      pop\n        /* \"#utility.yul\":6140:6233   */\n      tag_213\n        /* \"#utility.yul\":6229:6232   */\n      dup3\n        /* \"#utility.yul\":6140:6233   */\n      tag_129\n      jump\t// in\n    tag_213:\n        /* \"#utility.yul\":6258:6260   */\n      0x40\n        /* \"#utility.yul\":6253:6256   */\n      dup3\n        /* \"#utility.yul\":6249:6261   */\n      add\n        /* \"#utility.yul\":6242:6261   */\n      swap1\n      pop\n        /* \"#utility.yul\":5901:6267   */\n      swap2\n      swap1\n      pop\n      jump\t// out\n        /* \"#utility.yul\":6273:6692   */\n    tag_35:\n        /* \"#utility.yul\":6439:6443   */\n      0x00\n        /* \"#utility.yul\":6477:6479   */\n      0x20\n        /* \"#utility.yul\":6466:6475   */\n      dup3\n        /* \"#utility.yul\":6462:6480   */\n      add\n        /* \"#utility.yul\":6454:6480   */\n      swap1\n      pop\n        /* \"#utility.yul\":6526:6535   */\n      dup2\n        /* \"#utility.yul\":6520:6524   */\n      dup2\n        /* \"#utility.yul\":6516:6536   */\n      sub\n        /* \"#utility.yul\":6512:6513   */\n      0x00\n        /* \"#utility.yul\":6501:6510   */\n      dup4\n        /* \"#utility.yul\":6497:6514   */\n      add\n        /* \"#utility.yul\":6490:6537   */\n      mstore\n        /* \"#utility.yul\":6554:6685   */\n      tag_215\n        /* \"#utility.yul\":6680:6684   */\n      dup2\n        /* \"#utility.yul\":6554:6685   */\n      tag_130\n      jump\t// in\n    tag_215:\n        /* \"#utility.yul\":6546:6685   */\n      swap1\n      pop\n        /* \"#utility.yul\":6273:6692   */\n      swap2\n      swap1\n      pop\n      jump\t// out\n        /* \"#utility.yul\":6698:6872   */\n    tag_131:\n        /* \"#utility.yul\":6838:6864   */\n      0x496e76616c69642073747564656e7420616464726573732e0000000000000000\n        /* \"#utility.yul\":6834:6835   */\n      0x00\n        /* \"#utility.yul\":6826:6832   */\n      dup3\n        /* \"#utility.yul\":6822:6836   */\n      add\n        /* \"#utility.yul\":6815:6865   */\n      mstore\n        /* \"#utility.yul\":6698:6872   */\n      pop\n      jump\t// out\n        /* \"#utility.yul\":6878:7244   */\n    tag_132:\n        /* \"#utility.yul\":7020:7023   */\n      0x00\n        /* \"#utility.yul\":7041:7108   */\n      tag_218\n        /* \"#utility.yul\":7105:7107   */\n      0x18\n        /* \"#utility.yul\":7100:7103   */\n      dup4\n        /* \"#utility.yul\":7041:7108   */\n      tag_128\n      jump\t// in\n    tag_218:\n        /* \"#utility.yul\":7034:7108   */\n      swap2\n      pop\n        /* \"#utility.yul\":7117:7210   */\n      tag_219\n        /* \"#utility.yul\":7206:7209   */\n      dup3\n        /* \"#utility.yul\":7117:7210   */\n      tag_131\n      jump\t// in\n    tag_219:\n        /* \"#utility.yul\":7235:7237   */\n      0x20\n        /* \"#utility.yul\":7230:7233   */\n      dup3\n        /* \"#utility.yul\":7226:7238   */\n      add\n        /* \"#utility.yul\":7219:7238   */\n      swap1\n      pop\n        /* \"#utility.yul\":6878:7244   */\n      swap2\n      swap1\n      pop\n      jump\t// out\n        /* \"#utility.yul\":7250:7669   */\n    tag_39:\n        /* \"#utility.yul\":7416:7420   */\n      0x00\n        /* \"#utility.yul\":7454:7456   */\n      0x20\n        /* \"#utility.yul\":7443:7452   */\n      dup3\n        /* \"#utility.yul\":7439:7457   */\n      add\n        /* \"#utility.yul\":7431:7457   */\n      swap1\n      pop\n        /* \"#utility.yul\":7503:7512   */\n      dup2\n        /* \"#utility.yul\":7497:7501   */\n      dup2\n        /* \"#utility.yul\":7493:7513   */\n      sub\n        /* \"#utility.yul\":7489:7490   */\n      0x00\n        /* \"#utility.yul\":7478:7487   */\n      dup4\n        /* \"#utility.yul\":7474:7491   */\n      add\n        /* \"#utility.yul\":7467:7514   */\n      mstore\n        /* \"#utility.yul\":7531:7662   */\n      tag_221\n        /* \"#utility.yul\":7657:7661   */\n      dup2\n        /* \"#utility.yul\":7531:7662   */\n      tag_132\n      jump\t// in\n    tag_221:\n        /* \"#utility.yul\":7523:7662   */\n      swap1\n      pop\n        /* \"#utility.yul\":7250:7669   */\n      swap2\n      swap1\n      pop\n      jump\t// out\n        /* \"#utility.yul\":7675:7855   */\n    tag_44:\n        /* \"#utility.yul\":7723:7800   */\n      0x4e487b7100000000000000000000000000000000000000000000000000000000\n        /* \"#utility.yul\":7720:7721   */\n      0x00\n        /* \"#utility.yul\":7713:7801   */\n      mstore\n        /* \"#utility.yul\":7820:7824   */\n      0x32\n        /* \"#utility.yul\":7817:7818   */\n      0x04\n        /* \"#utility.yul\":7810:7825   */\n      mstore\n        /* \"#utility.yul\":7844:7848   */\n      0x24\n        /* \"#utility.yul\":7841:7842   */\n      0x00\n        /* \"#utility.yul\":7834:7849   */\n      revert\n        /* \"#utility.yul\":7861:8041   */\n    tag_133:\n        /* \"#utility.yul\":7909:7986   */\n      0x4e487b7100000000000000000000000000000000000000000000000000000000\n        /* \"#utility.yul\":7906:7907   */\n      0x00\n        /* \"#utility.yul\":7899:7987   */\n      mstore\n        /* \"#utility.yul\":8006:8010   */\n      0x11\n        /* \"#utility.yul\":8003:8004   */\n      0x04\n        /* \"#utility.yul\":7996:8011   */\n      mstore\n        /* \"#utility.yul\":8030:8034   */\n      0x24\n        /* \"#utility.yul\":8027:8028   */\n      0x00\n        /* \"#utility.yul\":8020:8035   */\n      revert\n        /* \"#utility.yul\":8047:8457   */\n    tag_60:\n        /* \"#utility.yul\":8087:8094   */\n      0x00\n        /* \"#utility.yul\":8110:8130   */\n      tag_225\n        /* \"#utility.yul\":8128:8129   */\n      dup3\n        /* \"#utility.yul\":8110:8130   */\n      tag_114\n      jump\t// in\n    tag_225:\n        /* \"#utility.yul\":8105:8130   */\n      swap2\n      pop\n        /* \"#utility.yul\":8144:8164   */\n      tag_226\n        /* \"#utility.yul\":8162:8163   */\n      dup4\n        /* \"#utility.yul\":8144:8164   */\n      tag_114\n      jump\t// in\n    tag_226:\n        /* \"#utility.yul\":8139:8164   */\n      swap3\n      pop\n        /* \"#utility.yul\":8199:8200   */\n      dup3\n        /* \"#utility.yul\":8196:8197   */\n      dup3\n        /* \"#utility.yul\":8192:8201   */\n      mul\n        /* \"#utility.yul\":8221:8251   */\n      tag_227\n        /* \"#utility.yul\":8239:8250   */\n      dup2\n        /* \"#utility.yul\":8221:8251   */\n      tag_114\n      jump\t// in\n    tag_227:\n        /* \"#utility.yul\":8210:8251   */\n      swap2\n      pop\n        /* \"#utility.yul\":8400:8401   */\n      dup3\n        /* \"#utility.yul\":8391:8398   */\n      dup3\n        /* \"#utility.yul\":8387:8402   */\n      div\n        /* \"#utility.yul\":8384:8385   */\n      dup5\n        /* \"#utility.yul\":8381:8403   */\n      eq\n        /* \"#utility.yul\":8361:8362   */\n      dup4\n        /* \"#utility.yul\":8354:8363   */\n      iszero\n        /* \"#utility.yul\":8334:8417   */\n      or\n        /* \"#utility.yul\":8311:8450   */\n      tag_228\n      jumpi\n        /* \"#utility.yul\":8430:8448   */\n      tag_229\n      tag_133\n      jump\t// in\n    tag_229:\n        /* \"#utility.yul\":8311:8450   */\n    tag_228:\n        /* \"#utility.yul\":8095:8457   */\n      pop\n        /* \"#utility.yul\":8047:8457   */\n      swap3\n      swap2\n      pop\n      pop\n      jump\t// out\n        /* \"#utility.yul\":8463:8654   */\n    tag_62:\n        /* \"#utility.yul\":8503:8506   */\n      0x00\n        /* \"#utility.yul\":8522:8542   */\n      tag_231\n        /* \"#utility.yul\":8540:8541   */\n      dup3\n        /* \"#utility.yul\":8522:8542   */\n      tag_114\n      jump\t// in\n    tag_231:\n        /* \"#utility.yul\":8517:8542   */\n      swap2\n      pop\n        /* \"#utility.yul\":8556:8576   */\n      tag_232\n        /* \"#utility.yul\":8574:8575   */\n      dup4\n        /* \"#utility.yul\":8556:8576   */\n      tag_114\n      jump\t// in\n    tag_232:\n        /* \"#utility.yul\":8551:8576   */\n      swap3\n      pop\n        /* \"#utility.yul\":8599:8600   */\n      dup3\n        /* \"#utility.yul\":8596:8597   */\n      dup3\n        /* \"#utility.yul\":8592:8601   */\n      add\n        /* \"#utility.yul\":8585:8601   */\n      swap1\n      pop\n        /* \"#utility.yul\":8620:8623   */\n      dup1\n        /* \"#utility.yul\":8617:8618   */\n      dup3\n        /* \"#utility.yul\":8614:8624   */\n      gt\n        /* \"#utility.yul\":8611:8647   */\n      iszero\n      tag_233\n      jumpi\n        /* \"#utility.yul\":8627:8645   */\n      tag_234\n      tag_133\n      jump\t// in\n    tag_234:\n        /* \"#utility.yul\":8611:8647   */\n    tag_233:\n        /* \"#utility.yul\":8463:8654   */\n      swap3\n      swap2\n      pop\n      pop\n      jump\t// out\n        /* \"#utility.yul\":8660:8840   */\n    tag_134:\n        /* \"#utility.yul\":8708:8785   */\n      0x4e487b7100000000000000000000000000000000000000000000000000000000\n        /* \"#utility.yul\":8705:8706   */\n      0x00\n        /* \"#utility.yul\":8698:8786   */\n      mstore\n        /* \"#utility.yul\":8805:8809   */\n      0x12\n        /* \"#utility.yul\":8802:8803   */\n      0x04\n        /* \"#utility.yul\":8795:8810   */\n      mstore\n        /* \"#utility.yul\":8829:8833   */\n      0x24\n        /* \"#utility.yul\":8826:8827   */\n      0x00\n        /* \"#utility.yul\":8819:8834   */\n      revert\n        /* \"#utility.yul\":8846:9031   */\n    tag_73:\n        /* \"#utility.yul\":8886:8887   */\n      0x00\n        /* \"#utility.yul\":8903:8923   */\n      tag_237\n        /* \"#utility.yul\":8921:8922   */\n      dup3\n        /* \"#utility.yul\":8903:8923   */\n      tag_114\n      jump\t// in\n    tag_237:\n        /* \"#utility.yul\":8898:8923   */\n      swap2\n      pop\n        /* \"#utility.yul\":8937:8957   */\n      tag_238\n        /* \"#utility.yul\":8955:8956   */\n      dup4\n        /* \"#utility.yul\":8937:8957   */\n      tag_114\n      jump\t// in\n    tag_238:\n        /* \"#utility.yul\":8932:8957   */\n      swap3\n      pop\n        /* \"#utility.yul\":8976:8977   */\n      dup3\n        /* \"#utility.yul\":8966:9001   */\n      tag_239\n      jumpi\n        /* \"#utility.yul\":8981:8999   */\n      tag_240\n      tag_134\n      jump\t// in\n    tag_240:\n        /* \"#utility.yul\":8966:9001   */\n    tag_239:\n        /* \"#utility.yul\":9023:9024   */\n      dup3\n        /* \"#utility.yul\":9020:9021   */\n      dup3\n        /* \"#utility.yul\":9016:9025   */\n      div\n        /* \"#utility.yul\":9011:9025   */\n      swap1\n      pop\n        /* \"#utility.yul\":8846:9031   */\n      swap3\n      swap2\n      pop\n      pop\n      jump\t// out\n        /* \"#utility.yul\":9037:9141   */\n    tag_135:\n        /* \"#utility.yul\":9102:9108   */\n      0x00\n        /* \"#utility.yul\":9130:9134   */\n      0x08\n        /* \"#utility.yul\":9120:9134   */\n      swap1\n      pop\n        /* \"#utility.yul\":9037:9141   */\n      swap2\n      swap1\n      pop\n      jump\t// out\n        /* \"#utility.yul\":9147:9290   */\n    tag_136:\n        /* \"#utility.yul\":9244:9255   */\n      0x00\n        /* \"#utility.yul\":9281:9284   */\n      dup2\n        /* \"#utility.yul\":9266:9284   */\n      swap1\n      pop\n        /* \"#utility.yul\":9147:9290   */\n      swap3\n      swap2\n      pop\n      pop\n      jump\t// out\n        /* \"#utility.yul\":9296:9394   */\n    tag_137:\n        /* \"#utility.yul\":9361:9365   */\n      0x00\n        /* \"#utility.yul\":9384:9387   */\n      dup2\n        /* \"#utility.yul\":9376:9387   */\n      swap1\n      pop\n        /* \"#utility.yul\":9296:9394   */\n      swap2\n      swap1\n      pop\n      jump\t// out\n        /* \"#utility.yul\":9400:9508   */\n    tag_138:\n        /* \"#utility.yul\":9477:9501   */\n      tag_245\n        /* \"#utility.yul\":9495:9500   */\n      dup2\n        /* \"#utility.yul\":9477:9501   */\n      tag_114\n      jump\t// in\n    tag_245:\n        /* \"#utility.yul\":9472:9475   */\n      dup3\n        /* \"#utility.yul\":9465:9502   */\n      mstore\n        /* \"#utility.yul\":9400:9508   */\n      pop\n      pop\n      jump\t// out\n        /* \"#utility.yul\":9514:9693   */\n    tag_139:\n        /* \"#utility.yul\":9583:9593   */\n      0x00\n        /* \"#utility.yul\":9604:9650   */\n      tag_247\n        /* \"#utility.yul\":9646:9649   */\n      dup4\n        /* \"#utility.yul\":9638:9644   */\n      dup4\n        /* \"#utility.yul\":9604:9650   */\n      tag_138\n      jump\t// in\n    tag_247:\n        /* \"#utility.yul\":9682:9686   */\n      0x20\n        /* \"#utility.yul\":9677:9680   */\n      dup4\n        /* \"#utility.yul\":9673:9687   */\n      add\n        /* \"#utility.yul\":9659:9687   */\n      swap1\n      pop\n        /* \"#utility.yul\":9514:9693   */\n      swap3\n      swap2\n      pop\n      pop\n      jump\t// out\n        /* \"#utility.yul\":9699:9810   */\n    tag_140:\n        /* \"#utility.yul\":9767:9771   */\n      0x00\n        /* \"#utility.yul\":9799:9803   */\n      0x20\n        /* \"#utility.yul\":9794:9797   */\n      dup3\n        /* \"#utility.yul\":9790:9804   */\n      add\n        /* \"#utility.yul\":9782:9804   */\n      swap1\n      pop\n        /* \"#utility.yul\":9699:9810   */\n      swap2\n      swap1\n      pop\n      jump\t// out\n        /* \"#utility.yul\":9848:10542   */\n    tag_141:\n        /* \"#utility.yul\":9984:10036   */\n      tag_250\n        /* \"#utility.yul\":10030:10035   */\n      dup2\n        /* \"#utility.yul\":9984:10036   */\n      tag_135\n      jump\t// in\n    tag_250:\n        /* \"#utility.yul\":10052:10136   */\n      tag_251\n        /* \"#utility.yul\":10129:10135   */\n      dup2\n        /* \"#utility.yul\":10124:10127   */\n      dup5\n        /* \"#utility.yul\":10052:10136   */\n      tag_136\n      jump\t// in\n    tag_251:\n        /* \"#utility.yul\":10045:10136   */\n      swap3\n      pop\n        /* \"#utility.yul\":10160:10214   */\n      tag_252\n        /* \"#utility.yul\":10208:10213   */\n      dup3\n        /* \"#utility.yul\":10160:10214   */\n      tag_137\n      jump\t// in\n    tag_252:\n        /* \"#utility.yul\":10237:10244   */\n      dup1\n        /* \"#utility.yul\":10268:10269   */\n      0x00\n        /* \"#utility.yul\":10253:10535   */\n    tag_253:\n        /* \"#utility.yul\":10278:10284   */\n      dup4\n        /* \"#utility.yul\":10275:10276   */\n      dup2\n        /* \"#utility.yul\":10272:10285   */\n      lt\n        /* \"#utility.yul\":10253:10535   */\n      iszero\n      tag_255\n      jumpi\n        /* \"#utility.yul\":10354:10360   */\n      dup2\n        /* \"#utility.yul\":10348:10361   */\n      mload\n        /* \"#utility.yul\":10381:10444   */\n      tag_256\n        /* \"#utility.yul\":10440:10443   */\n      dup8\n        /* \"#utility.yul\":10425:10438   */\n      dup3\n        /* \"#utility.yul\":10381:10444   */\n      tag_139\n      jump\t// in\n    tag_256:\n        /* \"#utility.yul\":10374:10444   */\n      swap7\n      pop\n        /* \"#utility.yul\":10467:10525   */\n      tag_257\n        /* \"#utility.yul\":10518:10524   */\n      dup4\n        /* \"#utility.yul\":10467:10525   */\n      tag_140\n      jump\t// in\n    tag_257:\n        /* \"#utility.yul\":10457:10525   */\n      swap3\n      pop\n        /* \"#utility.yul\":10313:10535   */\n      pop\n        /* \"#utility.yul\":10300:10301   */\n      0x01\n        /* \"#utility.yul\":10297:10298   */\n      dup2\n        /* \"#utility.yul\":10293:10302   */\n      add\n        /* \"#utility.yul\":10288:10302   */\n      swap1\n      pop\n        /* \"#utility.yul\":10253:10535   */\n      jump(tag_253)\n    tag_255:\n        /* \"#utility.yul\":10257:10271   */\n      pop\n        /* \"#utility.yul\":9960:10542   */\n      pop\n      pop\n      pop\n        /* \"#utility.yul\":9848:10542   */\n      pop\n      pop\n      jump\t// out\n        /* \"#utility.yul\":10548:10863   */\n    tag_99:\n        /* \"#utility.yul\":10687:10691   */\n      0x00\n        /* \"#utility.yul\":10725:10728   */\n      0x0100\n        /* \"#utility.yul\":10714:10723   */\n      dup3\n        /* \"#utility.yul\":10710:10729   */\n      add\n        /* \"#utility.yul\":10702:10729   */\n      swap1\n      pop\n        /* \"#utility.yul\":10739:10856   */\n      tag_259\n        /* \"#utility.yul\":10853:10854   */\n      0x00\n        /* \"#utility.yul\":10842:10851   */\n      dup4\n        /* \"#utility.yul\":10838:10855   */\n      add\n        /* \"#utility.yul\":10829:10835   */\n      dup5\n        /* \"#utility.yul\":10739:10856   */\n      tag_141\n      jump\t// in\n    tag_259:\n        /* \"#utility.yul\":10548:10863   */\n      swap3\n      swap2\n      pop\n      pop\n      jump\t// out\n\n    auxdata: 0xa26469706673582212203b78d33327dc1fb2135f1c31a83ebe201878a191e107348d051b108d0b3a938764736f6c634300081a0033\n}\n",
				"bytecode": {
					"linkReferences": {},
					"object": "6080604052348015600e575f80fd5b50335f806101000a81548173ffffffffffffffffffffffffffffffffffffffff021916908373ffffffffffffffffffffffffffffffffffffffff160217905550610d7e8061005b5f395ff3fe608060405234801561000f575f80fd5b5060043610610055575f3560e01c806309ee57a5146100595780630e5b35b3146100895780635113940d146100a5578063554fec0e146100c35780639257e04b146100f3575b5f80fd5b610073600480360381019061006e9190610822565b61010f565b604051610080919061086f565b60405180910390f35b6100a3600480360381019061009e9190610888565b610133565b005b6100ad61055b565b6040516100ba91906108c2565b60405180910390f35b6100dd60048036038101906100d89190610888565b61057e565b6040516100ea919061086f565b60405180910390f35b61010d60048036038101906101089190610a19565b610593565b005b6001602052815f5260405f208160088110610128575f80fd5b015f91509150505481565b5f8054906101000a900473ffffffffffffffffffffffffffffffffffffffff1673ffffffffffffffffffffffffffffffffffffffff163373ffffffffffffffffffffffffffffffffffffffff16146101c0576040517f08c379a00000000000000000000000000000000000000000000000000000000081526004016101b790610ad8565b60405180910390fd5b5f73ffffffffffffffffffffffffffffffffffffffff168173ffffffffffffffffffffffffffffffffffffffff160361022e576040517f08c379a000000000000000000000000000000000000000000000000000000000815260040161022590610b40565b60405180910390fd5b5f60015f8373ffffffffffffffffffffffffffffffffffffffff1673ffffffffffffffffffffffffffffffffffffffff1681526020019081526020015f206008806020026040519081016040528092919082600880156102a3576020028201915b81548152602001906001019080831161028f575b505050505090505f815f600881106102be576102bd610b5e565b5b602002015190505f826001600881106102da576102d9610b5e565b5b602002015190505f836002600881106102f6576102f5610b5e565b5b602002015190505f8460036008811061031257610311610b5e565b5b602002015190505f8560046008811061032e5761032d610b5e565b5b602002015190505f8660056008811061034a57610349610b5e565b5b602002015190505f8760066008811061036657610365610b5e565b5b602002015190505f8860076008811061038257610381610b5e565b5b602002015190505f8260026103979190610bb8565b888a6103a39190610bf9565b116103ba578260026103b59190610bb8565b6103c7565b87896103c69190610bf9565b5b90505f600a60056006600a888a8c8e896103e19190610bf9565b6103eb9190610bf9565b6103f59190610bf9565b6103ff9190610bf9565b6104099190610bb8565b6104139190610c59565b61041d9190610bf9565b6104279190610c59565b9050600a81111561043757600a90505b5f808411156104a857600a6005600a808760066104549190610bb8565b8660046104619190610bb8565b61046b9190610bf9565b6104759190610bb8565b61047f9190610c59565b6104899190610bf9565b6104939190610c59565b9050600a8111156104a357600a90505b6104bc565b60068210156104b7575f6104b9565b815b90505b8060025f8f73ffffffffffffffffffffffffffffffffffffffff1673ffffffffffffffffffffffffffffffffffffffff1681526020019081526020015f20819055508c73ffffffffffffffffffffffffffffffffffffffff167fac80656a956c0ba44c39f72601bfb63ca77157f4a544bb9cea7bbc770ffb741282604051610544919061086f565b60405180910390a250505050505050505050505050565b5f8054906101000a900473ffffffffffffffffffffffffffffffffffffffff1681565b6002602052805f5260405f205f915090505481565b5f8054906101000a900473ffffffffffffffffffffffffffffffffffffffff1673ffffffffffffffffffffffffffffffffffffffff163373ffffffffffffffffffffffffffffffffffffffff1614610620576040517f08c379a000000000000000000000000000000000000000000000000000000000815260040161061790610ad8565b60405180910390fd5b5f73ffffffffffffffffffffffffffffffffffffffff168273ffffffffffffffffffffffffffffffffffffffff160361068e576040517f08c379a000000000000000000000000000000000000000000000000000000000815260040161068590610b40565b60405180910390fd5b8060015f8473ffffffffffffffffffffffffffffffffffffffff1673ffffffffffffffffffffffffffffffffffffffff1681526020019081526020015f209060086106da92919061072d565b508173ffffffffffffffffffffffffffffffffffffffff167f14db761f3fcdaad8975837aa53665a05b9c99eb3b953ec9e7ce93acbb770dcc0826040516107219190610d2e565b60405180910390a25050565b826008810192821561075c579160200282015b8281111561075b578251825591602001919060010190610740565b5b509050610769919061076d565b5090565b5b80821115610784575f815f90555060010161076e565b5090565b5f604051905090565b5f80fd5b5f73ffffffffffffffffffffffffffffffffffffffff82169050919050565b5f6107be82610795565b9050919050565b6107ce816107b4565b81146107d8575f80fd5b50565b5f813590506107e9816107c5565b92915050565b5f819050919050565b610801816107ef565b811461080b575f80fd5b50565b5f8135905061081c816107f8565b92915050565b5f806040838503121561083857610837610791565b5b5f610845858286016107db565b92505060206108568582860161080e565b9150509250929050565b610869816107ef565b82525050565b5f6020820190506108825f830184610860565b92915050565b5f6020828403121561089d5761089c610791565b5b5f6108aa848285016107db565b91505092915050565b6108bc816107b4565b82525050565b5f6020820190506108d55f8301846108b3565b92915050565b5f80fd5b5f601f19601f8301169050919050565b7f4e487b71000000000000000000000000000000000000000000000000000000005f52604160045260245ffd5b610925826108df565b810181811067ffffffffffffffff82111715610944576109436108ef565b5b80604052505050565b5f610956610788565b9050610962828261091c565b919050565b5f67ffffffffffffffff821115610981576109806108ef565b5b602082029050919050565b5f80fd5b5f6109a261099d84610967565b61094d565b905080602084028301858111156109bc576109bb61098c565b5b835b818110156109e557806109d1888261080e565b8452602084019350506020810190506109be565b5050509392505050565b5f82601f830112610a0357610a026108db565b5b6008610a10848285610990565b91505092915050565b5f806101208385031215610a3057610a2f610791565b5b5f610a3d858286016107db565b9250506020610a4e858286016109ef565b9150509250929050565b5f82825260208201905092915050565b7f4f6e6c79207468652070726f666573736f722063616e20706572666f726d20745f8201527f68697320616374696f6e2e000000000000000000000000000000000000000000602082015250565b5f610ac2602b83610a58565b9150610acd82610a68565b604082019050919050565b5f6020820190508181035f830152610aef81610ab6565b9050919050565b7f496e76616c69642073747564656e7420616464726573732e00000000000000005f82015250565b5f610b2a601883610a58565b9150610b3582610af6565b602082019050919050565b5f6020820190508181035f830152610b5781610b1e565b9050919050565b7f4e487b71000000000000000000000000000000000000000000000000000000005f52603260045260245ffd5b7f4e487b71000000000000000000000000000000000000000000000000000000005f52601160045260245ffd5b5f610bc2826107ef565b9150610bcd836107ef565b9250828202610bdb816107ef565b91508282048414831517610bf257610bf1610b8b565b5b5092915050565b5f610c03826107ef565b9150610c0e836107ef565b9250828201905080821115610c2657610c25610b8b565b5b92915050565b7f4e487b71000000000000000000000000000000000000000000000000000000005f52601260045260245ffd5b5f610c63826107ef565b9150610c6e836107ef565b925082610c7e57610c7d610c2c565b5b828204905092915050565b5f60089050919050565b5f81905092915050565b5f819050919050565b610caf816107ef565b82525050565b5f610cc08383610ca6565b60208301905092915050565b5f602082019050919050565b610ce181610c89565b610ceb8184610c93565b9250610cf682610c9d565b805f5b83811015610d26578151610d0d8782610cb5565b9650610d1883610ccc565b925050600181019050610cf9565b505050505050565b5f61010082019050610d425f830184610cd8565b9291505056fea26469706673582212203b78d33327dc1fb2135f1c31a83ebe201878a191e107348d051b108d0b3a938764736f6c634300081a0033",
					"opcodes": "PUSH1 0x80 PUSH1 0x40 MSTORE CALLVALUE DUP1 ISZERO PUSH1 0xE JUMPI PUSH0 DUP1 REVERT JUMPDEST POP CALLER PUSH0 DUP1 PUSH2 0x100 EXP DUP2 SLOAD DUP2 PUSH20 0xFFFFFFFFFFFFFFFFFFFFFFFFFFFFFFFFFFFFFFFF MUL NOT AND SWAP1 DUP4 PUSH20 0xFFFFFFFFFFFFFFFFFFFFFFFFFFFFFFFFFFFFFFFF AND MUL OR SWAP1 SSTORE POP PUSH2 0xD7E DUP1 PUSH2 0x5B PUSH0 CODECOPY PUSH0 RETURN INVALID PUSH1 0x80 PUSH1 0x40 MSTORE CALLVALUE DUP1 ISZERO PUSH2 0xF JUMPI PUSH0 DUP1 REVERT JUMPDEST POP PUSH1 0x4 CALLDATASIZE LT PUSH2 0x55 JUMPI PUSH0 CALLDATALOAD PUSH1 0xE0 SHR DUP1 PUSH4 0x9EE57A5 EQ PUSH2 0x59 JUMPI DUP1 PUSH4 0xE5B35B3 EQ PUSH2 0x89 JUMPI DUP1 PUSH4 0x5113940D EQ PUSH2 0xA5 JUMPI DUP1 PUSH4 0x554FEC0E EQ PUSH2 0xC3 JUMPI DUP1 PUSH4 0x9257E04B EQ PUSH2 0xF3 JUMPI JUMPDEST PUSH0 DUP1 REVERT JUMPDEST PUSH2 0x73 PUSH1 0x4 DUP1 CALLDATASIZE SUB DUP2 ADD SWAP1 PUSH2 0x6E SWAP2 SWAP1 PUSH2 0x822 JUMP JUMPDEST PUSH2 0x10F JUMP JUMPDEST PUSH1 0x40 MLOAD PUSH2 0x80 SWAP2 SWAP1 PUSH2 0x86F JUMP JUMPDEST PUSH1 0x40 MLOAD DUP1 SWAP2 SUB SWAP1 RETURN JUMPDEST PUSH2 0xA3 PUSH1 0x4 DUP1 CALLDATASIZE SUB DUP2 ADD SWAP1 PUSH2 0x9E SWAP2 SWAP1 PUSH2 0x888 JUMP JUMPDEST PUSH2 0x133 JUMP JUMPDEST STOP JUMPDEST PUSH2 0xAD PUSH2 0x55B JUMP JUMPDEST PUSH1 0x40 MLOAD PUSH2 0xBA SWAP2 SWAP1 PUSH2 0x8C2 JUMP JUMPDEST PUSH1 0x40 MLOAD DUP1 SWAP2 SUB SWAP1 RETURN JUMPDEST PUSH2 0xDD PUSH1 0x4 DUP1 CALLDATASIZE SUB DUP2 ADD SWAP1 PUSH2 0xD8 SWAP2 SWAP1 PUSH2 0x888 JUMP JUMPDEST PUSH2 0x57E JUMP JUMPDEST PUSH1 0x40 MLOAD PUSH2 0xEA SWAP2 SWAP1 PUSH2 0x86F JUMP JUMPDEST PUSH1 0x40 MLOAD DUP1 SWAP2 SUB SWAP1 RETURN JUMPDEST PUSH2 0x10D PUSH1 0x4 DUP1 CALLDATASIZE SUB DUP2 ADD SWAP1 PUSH2 0x108 SWAP2 SWAP1 PUSH2 0xA19 JUMP JUMPDEST PUSH2 0x593 JUMP JUMPDEST STOP JUMPDEST PUSH1 0x1 PUSH1 0x20 MSTORE DUP2 PUSH0 MSTORE PUSH1 0x40 PUSH0 KECCAK256 DUP2 PUSH1 0x8 DUP2 LT PUSH2 0x128 JUMPI PUSH0 DUP1 REVERT JUMPDEST ADD PUSH0 SWAP2 POP SWAP2 POP POP SLOAD DUP2 JUMP JUMPDEST PUSH0 DUP1 SLOAD SWAP1 PUSH2 0x100 EXP SWAP1 DIV PUSH20 0xFFFFFFFFFFFFFFFFFFFFFFFFFFFFFFFFFFFFFFFF AND PUSH20 0xFFFFFFFFFFFFFFFFFFFFFFFFFFFFFFFFFFFFFFFF AND CALLER PUSH20 0xFFFFFFFFFFFFFFFFFFFFFFFFFFFFFFFFFFFFFFFF AND EQ PUSH2 0x1C0 JUMPI PUSH1 0x40 MLOAD PUSH32 0x8C379A000000000000000000000000000000000000000000000000000000000 DUP2 MSTORE PUSH1 0x4 ADD PUSH2 0x1B7 SWAP1 PUSH2 0xAD8 JUMP JUMPDEST PUSH1 0x40 MLOAD DUP1 SWAP2 SUB SWAP1 REVERT JUMPDEST PUSH0 PUSH20 0xFFFFFFFFFFFFFFFFFFFFFFFFFFFFFFFFFFFFFFFF AND DUP2 PUSH20 0xFFFFFFFFFFFFFFFFFFFFFFFFFFFFFFFFFFFFFFFF AND SUB PUSH2 0x22E JUMPI PUSH1 0x40 MLOAD PUSH32 0x8C379A000000000000000000000000000000000000000000000000000000000 DUP2 MSTORE PUSH1 0x4 ADD PUSH2 0x225 SWAP1 PUSH2 0xB40 JUMP JUMPDEST PUSH1 0x40 MLOAD DUP1 SWAP2 SUB SWAP1 REVERT JUMPDEST PUSH0 PUSH1 0x1 PUSH0 DUP4 PUSH20 0xFFFFFFFFFFFFFFFFFFFFFFFFFFFFFFFFFFFFFFFF AND PUSH20 0xFFFFFFFFFFFFFFFFFFFFFFFFFFFFFFFFFFFFFFFF AND DUP2 MSTORE PUSH1 0x20 ADD SWAP1 DUP2 MSTORE PUSH1 0x20 ADD PUSH0 KECCAK256 PUSH1 0x8 DUP1 PUSH1 0x20 MUL PUSH1 0x40 MLOAD SWAP1 DUP2 ADD PUSH1 0x40 MSTORE DUP1 SWAP3 SWAP2 SWAP1 DUP3 PUSH1 0x8 DUP1 ISZERO PUSH2 0x2A3 JUMPI PUSH1 0x20 MUL DUP3 ADD SWAP2 JUMPDEST DUP2 SLOAD DUP2 MSTORE PUSH1 0x20 ADD SWAP1 PUSH1 0x1 ADD SWAP1 DUP1 DUP4 GT PUSH2 0x28F JUMPI JUMPDEST POP POP POP POP POP SWAP1 POP PUSH0 DUP2 PUSH0 PUSH1 0x8 DUP2 LT PUSH2 0x2BE JUMPI PUSH2 0x2BD PUSH2 0xB5E JUMP JUMPDEST JUMPDEST PUSH1 0x20 MUL ADD MLOAD SWAP1 POP PUSH0 DUP3 PUSH1 0x1 PUSH1 0x8 DUP2 LT PUSH2 0x2DA JUMPI PUSH2 0x2D9 PUSH2 0xB5E JUMP JUMPDEST JUMPDEST PUSH1 0x20 MUL ADD MLOAD SWAP1 POP PUSH0 DUP4 PUSH1 0x2 PUSH1 0x8 DUP2 LT PUSH2 0x2F6 JUMPI PUSH2 0x2F5 PUSH2 0xB5E JUMP JUMPDEST JUMPDEST PUSH1 0x20 MUL ADD MLOAD SWAP1 POP PUSH0 DUP5 PUSH1 0x3 PUSH1 0x8 DUP2 LT PUSH2 0x312 JUMPI PUSH2 0x311 PUSH2 0xB5E JUMP JUMPDEST JUMPDEST PUSH1 0x20 MUL ADD MLOAD SWAP1 POP PUSH0 DUP6 PUSH1 0x4 PUSH1 0x8 DUP2 LT PUSH2 0x32E JUMPI PUSH2 0x32D PUSH2 0xB5E JUMP JUMPDEST JUMPDEST PUSH1 0x20 MUL ADD MLOAD SWAP1 POP PUSH0 DUP7 PUSH1 0x5 PUSH1 0x8 DUP2 LT PUSH2 0x34A JUMPI PUSH2 0x349 PUSH2 0xB5E JUMP JUMPDEST JUMPDEST PUSH1 0x20 MUL ADD MLOAD SWAP1 POP PUSH0 DUP8 PUSH1 0x6 PUSH1 0x8 DUP2 LT PUSH2 0x366 JUMPI PUSH2 0x365 PUSH2 0xB5E JUMP JUMPDEST JUMPDEST PUSH1 0x20 MUL ADD MLOAD SWAP1 POP PUSH0 DUP9 PUSH1 0x7 PUSH1 0x8 DUP2 LT PUSH2 0x382 JUMPI PUSH2 0x381 PUSH2 0xB5E JUMP JUMPDEST JUMPDEST PUSH1 0x20 MUL ADD MLOAD SWAP1 POP PUSH0 DUP3 PUSH1 0x2 PUSH2 0x397 SWAP2 SWAP1 PUSH2 0xBB8 JUMP JUMPDEST DUP9 DUP11 PUSH2 0x3A3 SWAP2 SWAP1 PUSH2 0xBF9 JUMP JUMPDEST GT PUSH2 0x3BA JUMPI DUP3 PUSH1 0x2 PUSH2 0x3B5 SWAP2 SWAP1 PUSH2 0xBB8 JUMP JUMPDEST PUSH2 0x3C7 JUMP JUMPDEST DUP8 DUP10 PUSH2 0x3C6 SWAP2 SWAP1 PUSH2 0xBF9 JUMP JUMPDEST JUMPDEST SWAP1 POP PUSH0 PUSH1 0xA PUSH1 0x5 PUSH1 0x6 PUSH1 0xA DUP9 DUP11 DUP13 DUP15 DUP10 PUSH2 0x3E1 SWAP2 SWAP1 PUSH2 0xBF9 JUMP JUMPDEST PUSH2 0x3EB SWAP2 SWAP1 PUSH2 0xBF9 JUMP JUMPDEST PUSH2 0x3F5 SWAP2 SWAP1 PUSH2 0xBF9 JUMP JUMPDEST PUSH2 0x3FF SWAP2 SWAP1 PUSH2 0xBF9 JUMP JUMPDEST PUSH2 0x409 SWAP2 SWAP1 PUSH2 0xBB8 JUMP JUMPDEST PUSH2 0x413 SWAP2 SWAP1 PUSH2 0xC59 JUMP JUMPDEST PUSH2 0x41D SWAP2 SWAP1 PUSH2 0xBF9 JUMP JUMPDEST PUSH2 0x427 SWAP2 SWAP1 PUSH2 0xC59 JUMP JUMPDEST SWAP1 POP PUSH1 0xA DUP2 GT ISZERO PUSH2 0x437 JUMPI PUSH1 0xA SWAP1 POP JUMPDEST PUSH0 DUP1 DUP5 GT ISZERO PUSH2 0x4A8 JUMPI PUSH1 0xA PUSH1 0x5 PUSH1 0xA DUP1 DUP8 PUSH1 0x6 PUSH2 0x454 SWAP2 SWAP1 PUSH2 0xBB8 JUMP JUMPDEST DUP7 PUSH1 0x4 PUSH2 0x461 SWAP2 SWAP1 PUSH2 0xBB8 JUMP JUMPDEST PUSH2 0x46B SWAP2 SWAP1 PUSH2 0xBF9 JUMP JUMPDEST PUSH2 0x475 SWAP2 SWAP1 PUSH2 0xBB8 JUMP JUMPDEST PUSH2 0x47F SWAP2 SWAP1 PUSH2 0xC59 JUMP JUMPDEST PUSH2 0x489 SWAP2 SWAP1 PUSH2 0xBF9 JUMP JUMPDEST PUSH2 0x493 SWAP2 SWAP1 PUSH2 0xC59 JUMP JUMPDEST SWAP1 POP PUSH1 0xA DUP2 GT ISZERO PUSH2 0x4A3 JUMPI PUSH1 0xA SWAP1 POP JUMPDEST PUSH2 0x4BC JUMP JUMPDEST PUSH1 0x6 DUP3 LT ISZERO PUSH2 0x4B7 JUMPI PUSH0 PUSH2 0x4B9 JUMP JUMPDEST DUP2 JUMPDEST SWAP1 POP JUMPDEST DUP1 PUSH1 0x2 PUSH0 DUP16 PUSH20 0xFFFFFFFFFFFFFFFFFFFFFFFFFFFFFFFFFFFFFFFF AND PUSH20 0xFFFFFFFFFFFFFFFFFFFFFFFFFFFFFFFFFFFFFFFF AND DUP2 MSTORE PUSH1 0x20 ADD SWAP1 DUP2 MSTORE PUSH1 0x20 ADD PUSH0 KECCAK256 DUP2 SWAP1 SSTORE POP DUP13 PUSH20 0xFFFFFFFFFFFFFFFFFFFFFFFFFFFFFFFFFFFFFFFF AND PUSH32 0xAC80656A956C0BA44C39F72601BFB63CA77157F4A544BB9CEA7BBC770FFB7412 DUP3 PUSH1 0x40 MLOAD PUSH2 0x544 SWAP2 SWAP1 PUSH2 0x86F JUMP JUMPDEST PUSH1 0x40 MLOAD DUP1 SWAP2 SUB SWAP1 LOG2 POP POP POP POP POP POP POP POP POP POP POP POP POP JUMP JUMPDEST PUSH0 DUP1 SLOAD SWAP1 PUSH2 0x100 EXP SWAP1 DIV PUSH20 0xFFFFFFFFFFFFFFFFFFFFFFFFFFFFFFFFFFFFFFFF AND DUP2 JUMP JUMPDEST PUSH1 0x2 PUSH1 0x20 MSTORE DUP1 PUSH0 MSTORE PUSH1 0x40 PUSH0 KECCAK256 PUSH0 SWAP2 POP SWAP1 POP SLOAD DUP2 JUMP JUMPDEST PUSH0 DUP1 SLOAD SWAP1 PUSH2 0x100 EXP SWAP1 DIV PUSH20 0xFFFFFFFFFFFFFFFFFFFFFFFFFFFFFFFFFFFFFFFF AND PUSH20 0xFFFFFFFFFFFFFFFFFFFFFFFFFFFFFFFFFFFFFFFF AND CALLER PUSH20 0xFFFFFFFFFFFFFFFFFFFFFFFFFFFFFFFFFFFFFFFF AND EQ PUSH2 0x620 JUMPI PUSH1 0x40 MLOAD PUSH32 0x8C379A000000000000000000000000000000000000000000000000000000000 DUP2 MSTORE PUSH1 0x4 ADD PUSH2 0x617 SWAP1 PUSH2 0xAD8 JUMP JUMPDEST PUSH1 0x40 MLOAD DUP1 SWAP2 SUB SWAP1 REVERT JUMPDEST PUSH0 PUSH20 0xFFFFFFFFFFFFFFFFFFFFFFFFFFFFFFFFFFFFFFFF AND DUP3 PUSH20 0xFFFFFFFFFFFFFFFFFFFFFFFFFFFFFFFFFFFFFFFF AND SUB PUSH2 0x68E JUMPI PUSH1 0x40 MLOAD PUSH32 0x8C379A000000000000000000000000000000000000000000000000000000000 DUP2 MSTORE PUSH1 0x4 ADD PUSH2 0x685 SWAP1 PUSH2 0xB40 JUMP JUMPDEST PUSH1 0x40 MLOAD DUP1 SWAP2 SUB SWAP1 REVERT JUMPDEST DUP1 PUSH1 0x1 PUSH0 DUP5 PUSH20 0xFFFFFFFFFFFFFFFFFFFFFFFFFFFFFFFFFFFFFFFF AND PUSH20 0xFFFFFFFFFFFFFFFFFFFFFFFFFFFFFFFFFFFFFFFF AND DUP2 MSTORE PUSH1 0x20 ADD SWAP1 DUP2 MSTORE PUSH1 0x20 ADD PUSH0 KECCAK256 SWAP1 PUSH1 0x8 PUSH2 0x6DA SWAP3 SWAP2 SWAP1 PUSH2 0x72D JUMP JUMPDEST POP DUP2 PUSH20 0xFFFFFFFFFFFFFFFFFFFFFFFFFFFFFFFFFFFFFFFF AND PUSH32 0x14DB761F3FCDAAD8975837AA53665A05B9C99EB3B953EC9E7CE93ACBB770DCC0 DUP3 PUSH1 0x40 MLOAD PUSH2 0x721 SWAP2 SWAP1 PUSH2 0xD2E JUMP JUMPDEST PUSH1 0x40 MLOAD DUP1 SWAP2 SUB SWAP1 LOG2 POP POP JUMP JUMPDEST DUP3 PUSH1 0x8 DUP2 ADD SWAP3 DUP3 ISZERO PUSH2 0x75C JUMPI SWAP2 PUSH1 0x20 MUL DUP3 ADD JUMPDEST DUP3 DUP2 GT ISZERO PUSH2 0x75B JUMPI DUP3 MLOAD DUP3 SSTORE SWAP2 PUSH1 0x20 ADD SWAP2 SWAP1 PUSH1 0x1 ADD SWAP1 PUSH2 0x740 JUMP JUMPDEST JUMPDEST POP SWAP1 POP PUSH2 0x769 SWAP2 SWAP1 PUSH2 0x76D JUMP JUMPDEST POP SWAP1 JUMP JUMPDEST JUMPDEST DUP1 DUP3 GT ISZERO PUSH2 0x784 JUMPI PUSH0 DUP2 PUSH0 SWAP1 SSTORE POP PUSH1 0x1 ADD PUSH2 0x76E JUMP JUMPDEST POP SWAP1 JUMP JUMPDEST PUSH0 PUSH1 0x40 MLOAD SWAP1 POP SWAP1 JUMP JUMPDEST PUSH0 DUP1 REVERT JUMPDEST PUSH0 PUSH20 0xFFFFFFFFFFFFFFFFFFFFFFFFFFFFFFFFFFFFFFFF DUP3 AND SWAP1 POP SWAP2 SWAP1 POP JUMP JUMPDEST PUSH0 PUSH2 0x7BE DUP3 PUSH2 0x795 JUMP JUMPDEST SWAP1 POP SWAP2 SWAP1 POP JUMP JUMPDEST PUSH2 0x7CE DUP2 PUSH2 0x7B4 JUMP JUMPDEST DUP2 EQ PUSH2 0x7D8 JUMPI PUSH0 DUP1 REVERT JUMPDEST POP JUMP JUMPDEST PUSH0 DUP2 CALLDATALOAD SWAP1 POP PUSH2 0x7E9 DUP2 PUSH2 0x7C5 JUMP JUMPDEST SWAP3 SWAP2 POP POP JUMP JUMPDEST PUSH0 DUP2 SWAP1 POP SWAP2 SWAP1 POP JUMP JUMPDEST PUSH2 0x801 DUP2 PUSH2 0x7EF JUMP JUMPDEST DUP2 EQ PUSH2 0x80B JUMPI PUSH0 DUP1 REVERT JUMPDEST POP JUMP JUMPDEST PUSH0 DUP2 CALLDATALOAD SWAP1 POP PUSH2 0x81C DUP2 PUSH2 0x7F8 JUMP JUMPDEST SWAP3 SWAP2 POP POP JUMP JUMPDEST PUSH0 DUP1 PUSH1 0x40 DUP4 DUP6 SUB SLT ISZERO PUSH2 0x838 JUMPI PUSH2 0x837 PUSH2 0x791 JUMP JUMPDEST JUMPDEST PUSH0 PUSH2 0x845 DUP6 DUP3 DUP7 ADD PUSH2 0x7DB JUMP JUMPDEST SWAP3 POP POP PUSH1 0x20 PUSH2 0x856 DUP6 DUP3 DUP7 ADD PUSH2 0x80E JUMP JUMPDEST SWAP2 POP POP SWAP3 POP SWAP3 SWAP1 POP JUMP JUMPDEST PUSH2 0x869 DUP2 PUSH2 0x7EF JUMP JUMPDEST DUP3 MSTORE POP POP JUMP JUMPDEST PUSH0 PUSH1 0x20 DUP3 ADD SWAP1 POP PUSH2 0x882 PUSH0 DUP4 ADD DUP5 PUSH2 0x860 JUMP JUMPDEST SWAP3 SWAP2 POP POP JUMP JUMPDEST PUSH0 PUSH1 0x20 DUP3 DUP5 SUB SLT ISZERO PUSH2 0x89D JUMPI PUSH2 0x89C PUSH2 0x791 JUMP JUMPDEST JUMPDEST PUSH0 PUSH2 0x8AA DUP5 DUP3 DUP6 ADD PUSH2 0x7DB JUMP JUMPDEST SWAP2 POP POP SWAP3 SWAP2 POP POP JUMP JUMPDEST PUSH2 0x8BC DUP2 PUSH2 0x7B4 JUMP JUMPDEST DUP3 MSTORE POP POP JUMP JUMPDEST PUSH0 PUSH1 0x20 DUP3 ADD SWAP1 POP PUSH2 0x8D5 PUSH0 DUP4 ADD DUP5 PUSH2 0x8B3 JUMP JUMPDEST SWAP3 SWAP2 POP POP JUMP JUMPDEST PUSH0 DUP1 REVERT JUMPDEST PUSH0 PUSH1 0x1F NOT PUSH1 0x1F DUP4 ADD AND SWAP1 POP SWAP2 SWAP1 POP JUMP JUMPDEST PUSH32 0x4E487B7100000000000000000000000000000000000000000000000000000000 PUSH0 MSTORE PUSH1 0x41 PUSH1 0x4 MSTORE PUSH1 0x24 PUSH0 REVERT JUMPDEST PUSH2 0x925 DUP3 PUSH2 0x8DF JUMP JUMPDEST DUP2 ADD DUP2 DUP2 LT PUSH8 0xFFFFFFFFFFFFFFFF DUP3 GT OR ISZERO PUSH2 0x944 JUMPI PUSH2 0x943 PUSH2 0x8EF JUMP JUMPDEST JUMPDEST DUP1 PUSH1 0x40 MSTORE POP POP POP JUMP JUMPDEST PUSH0 PUSH2 0x956 PUSH2 0x788 JUMP JUMPDEST SWAP1 POP PUSH2 0x962 DUP3 DUP3 PUSH2 0x91C JUMP JUMPDEST SWAP2 SWAP1 POP JUMP JUMPDEST PUSH0 PUSH8 0xFFFFFFFFFFFFFFFF DUP3 GT ISZERO PUSH2 0x981 JUMPI PUSH2 0x980 PUSH2 0x8EF JUMP JUMPDEST JUMPDEST PUSH1 0x20 DUP3 MUL SWAP1 POP SWAP2 SWAP1 POP JUMP JUMPDEST PUSH0 DUP1 REVERT JUMPDEST PUSH0 PUSH2 0x9A2 PUSH2 0x99D DUP5 PUSH2 0x967 JUMP JUMPDEST PUSH2 0x94D JUMP JUMPDEST SWAP1 POP DUP1 PUSH1 0x20 DUP5 MUL DUP4 ADD DUP6 DUP2 GT ISZERO PUSH2 0x9BC JUMPI PUSH2 0x9BB PUSH2 0x98C JUMP JUMPDEST JUMPDEST DUP4 JUMPDEST DUP2 DUP2 LT ISZERO PUSH2 0x9E5 JUMPI DUP1 PUSH2 0x9D1 DUP9 DUP3 PUSH2 0x80E JUMP JUMPDEST DUP5 MSTORE PUSH1 0x20 DUP5 ADD SWAP4 POP POP PUSH1 0x20 DUP2 ADD SWAP1 POP PUSH2 0x9BE JUMP JUMPDEST POP POP POP SWAP4 SWAP3 POP POP POP JUMP JUMPDEST PUSH0 DUP3 PUSH1 0x1F DUP4 ADD SLT PUSH2 0xA03 JUMPI PUSH2 0xA02 PUSH2 0x8DB JUMP JUMPDEST JUMPDEST PUSH1 0x8 PUSH2 0xA10 DUP5 DUP3 DUP6 PUSH2 0x990 JUMP JUMPDEST SWAP2 POP POP SWAP3 SWAP2 POP POP JUMP JUMPDEST PUSH0 DUP1 PUSH2 0x120 DUP4 DUP6 SUB SLT ISZERO PUSH2 0xA30 JUMPI PUSH2 0xA2F PUSH2 0x791 JUMP JUMPDEST JUMPDEST PUSH0 PUSH2 0xA3D DUP6 DUP3 DUP7 ADD PUSH2 0x7DB JUMP JUMPDEST SWAP3 POP POP PUSH1 0x20 PUSH2 0xA4E DUP6 DUP3 DUP7 ADD PUSH2 0x9EF JUMP JUMPDEST SWAP2 POP POP SWAP3 POP SWAP3 SWAP1 POP JUMP JUMPDEST PUSH0 DUP3 DUP3 MSTORE PUSH1 0x20 DUP3 ADD SWAP1 POP SWAP3 SWAP2 POP POP JUMP JUMPDEST PUSH32 0x4F6E6C79207468652070726F666573736F722063616E20706572666F726D2074 PUSH0 DUP3 ADD MSTORE PUSH32 0x68697320616374696F6E2E000000000000000000000000000000000000000000 PUSH1 0x20 DUP3 ADD MSTORE POP JUMP JUMPDEST PUSH0 PUSH2 0xAC2 PUSH1 0x2B DUP4 PUSH2 0xA58 JUMP JUMPDEST SWAP2 POP PUSH2 0xACD DUP3 PUSH2 0xA68 JUMP JUMPDEST PUSH1 0x40 DUP3 ADD SWAP1 POP SWAP2 SWAP1 POP JUMP JUMPDEST PUSH0 PUSH1 0x20 DUP3 ADD SWAP1 POP DUP2 DUP2 SUB PUSH0 DUP4 ADD MSTORE PUSH2 0xAEF DUP2 PUSH2 0xAB6 JUMP JUMPDEST SWAP1 POP SWAP2 SWAP1 POP JUMP JUMPDEST PUSH32 0x496E76616C69642073747564656E7420616464726573732E0000000000000000 PUSH0 DUP3 ADD MSTORE POP JUMP JUMPDEST PUSH0 PUSH2 0xB2A PUSH1 0x18 DUP4 PUSH2 0xA58 JUMP JUMPDEST SWAP2 POP PUSH2 0xB35 DUP3 PUSH2 0xAF6 JUMP JUMPDEST PUSH1 0x20 DUP3 ADD SWAP1 POP SWAP2 SWAP1 POP JUMP JUMPDEST PUSH0 PUSH1 0x20 DUP3 ADD SWAP1 POP DUP2 DUP2 SUB PUSH0 DUP4 ADD MSTORE PUSH2 0xB57 DUP2 PUSH2 0xB1E JUMP JUMPDEST SWAP1 POP SWAP2 SWAP1 POP JUMP JUMPDEST PUSH32 0x4E487B7100000000000000000000000000000000000000000000000000000000 PUSH0 MSTORE PUSH1 0x32 PUSH1 0x4 MSTORE PUSH1 0x24 PUSH0 REVERT JUMPDEST PUSH32 0x4E487B7100000000000000000000000000000000000000000000000000000000 PUSH0 MSTORE PUSH1 0x11 PUSH1 0x4 MSTORE PUSH1 0x24 PUSH0 REVERT JUMPDEST PUSH0 PUSH2 0xBC2 DUP3 PUSH2 0x7EF JUMP JUMPDEST SWAP2 POP PUSH2 0xBCD DUP4 PUSH2 0x7EF JUMP JUMPDEST SWAP3 POP DUP3 DUP3 MUL PUSH2 0xBDB DUP2 PUSH2 0x7EF JUMP JUMPDEST SWAP2 POP DUP3 DUP3 DIV DUP5 EQ DUP4 ISZERO OR PUSH2 0xBF2 JUMPI PUSH2 0xBF1 PUSH2 0xB8B JUMP JUMPDEST JUMPDEST POP SWAP3 SWAP2 POP POP JUMP JUMPDEST PUSH0 PUSH2 0xC03 DUP3 PUSH2 0x7EF JUMP JUMPDEST SWAP2 POP PUSH2 0xC0E DUP4 PUSH2 0x7EF JUMP JUMPDEST SWAP3 POP DUP3 DUP3 ADD SWAP1 POP DUP1 DUP3 GT ISZERO PUSH2 0xC26 JUMPI PUSH2 0xC25 PUSH2 0xB8B JUMP JUMPDEST JUMPDEST SWAP3 SWAP2 POP POP JUMP JUMPDEST PUSH32 0x4E487B7100000000000000000000000000000000000000000000000000000000 PUSH0 MSTORE PUSH1 0x12 PUSH1 0x4 MSTORE PUSH1 0x24 PUSH0 REVERT JUMPDEST PUSH0 PUSH2 0xC63 DUP3 PUSH2 0x7EF JUMP JUMPDEST SWAP2 POP PUSH2 0xC6E DUP4 PUSH2 0x7EF JUMP JUMPDEST SWAP3 POP DUP3 PUSH2 0xC7E JUMPI PUSH2 0xC7D PUSH2 0xC2C JUMP JUMPDEST JUMPDEST DUP3 DUP3 DIV SWAP1 POP SWAP3 SWAP2 POP POP JUMP JUMPDEST PUSH0 PUSH1 0x8 SWAP1 POP SWAP2 SWAP1 POP JUMP JUMPDEST PUSH0 DUP2 SWAP1 POP SWAP3 SWAP2 POP POP JUMP JUMPDEST PUSH0 DUP2 SWAP1 POP SWAP2 SWAP1 POP JUMP JUMPDEST PUSH2 0xCAF DUP2 PUSH2 0x7EF JUMP JUMPDEST DUP3 MSTORE POP POP JUMP JUMPDEST PUSH0 PUSH2 0xCC0 DUP4 DUP4 PUSH2 0xCA6 JUMP JUMPDEST PUSH1 0x20 DUP4 ADD SWAP1 POP SWAP3 SWAP2 POP POP JUMP JUMPDEST PUSH0 PUSH1 0x20 DUP3 ADD SWAP1 POP SWAP2 SWAP1 POP JUMP JUMPDEST PUSH2 0xCE1 DUP2 PUSH2 0xC89 JUMP JUMPDEST PUSH2 0xCEB DUP2 DUP5 PUSH2 0xC93 JUMP JUMPDEST SWAP3 POP PUSH2 0xCF6 DUP3 PUSH2 0xC9D JUMP JUMPDEST DUP1 PUSH0 JUMPDEST DUP4 DUP2 LT ISZERO PUSH2 0xD26 JUMPI DUP2 MLOAD PUSH2 0xD0D DUP8 DUP3 PUSH2 0xCB5 JUMP JUMPDEST SWAP7 POP PUSH2 0xD18 DUP4 PUSH2 0xCCC JUMP JUMPDEST SWAP3 POP POP PUSH1 0x1 DUP2 ADD SWAP1 POP PUSH2 0xCF9 JUMP JUMPDEST POP POP POP POP POP POP JUMP JUMPDEST PUSH0 PUSH2 0x100 DUP3 ADD SWAP1 POP PUSH2 0xD42 PUSH0 DUP4 ADD DUP5 PUSH2 0xCD8 JUMP JUMPDEST SWAP3 SWAP2 POP POP JUMP INVALID LOG2 PUSH5 0x6970667358 0x22 SLT KECCAK256 EXTCODESIZE PUSH25 0xD33327DC1FB2135F1C31A83EBE201878A191E107348D051B10 DUP14 SIGNEXTEND GASPRICE SWAP4 DUP8 PUSH5 0x736F6C6343 STOP ADDMOD BYTE STOP CALLER "
				},
				"gasEstimates": {
					"creation": {
						"codeDepositCost": "690800",
						"executionCost": "24984",
						"totalCost": "715784"
					},
					"external": {
						"assignGrades(address,uint256[8])": "infinite",
						"computeFinalGrade(address)": "infinite",
						"finalGrades(address)": "2846",
						"grades(address,uint256)": "infinite",
						"professor()": "2527"
					},
					"internal": {
						"max(uint256,uint256)": "infinite",
						"min(uint256,uint256)": "infinite",
						"round(uint256)": "infinite"
					}
				},
				"methodIdentifiers": {
					"assignGrades(address,uint256[8])": "9257e04b",
					"computeFinalGrade(address)": "0e5b35b3",
					"finalGrades(address)": "554fec0e",
					"grades(address,uint256)": "09ee57a5",
					"professor()": "5113940d"
				}
			},
			"storageLayout": {
				"storage": [
					{
						"astId": 3,
						"contract": "MMDLSFinalGrade.sol:MMDLSFinalGrade",
						"label": "professor",
						"offset": 0,
						"slot": "0",
						"type": "t_address"
					},
					{
						"astId": 9,
						"contract": "MMDLSFinalGrade.sol:MMDLSFinalGrade",
						"label": "grades",
						"offset": 0,
						"slot": "1",
						"type": "t_mapping(t_address,t_array(t_uint256)8_storage)"
					},
					{
						"astId": 13,
						"contract": "MMDLSFinalGrade.sol:MMDLSFinalGrade",
						"label": "finalGrades",
						"offset": 0,
						"slot": "2",
						"type": "t_mapping(t_address,t_uint256)"
					}
				],
				"types": {
					"t_address": {
						"encoding": "inplace",
						"label": "address",
						"numberOfBytes": "20"
					},
					"t_array(t_uint256)8_storage": {
						"base": "t_uint256",
						"encoding": "inplace",
						"label": "uint256[8]",
						"numberOfBytes": "256"
					},
					"t_mapping(t_address,t_array(t_uint256)8_storage)": {
						"encoding": "mapping",
						"key": "t_address",
						"label": "mapping(address => uint256[8])",
						"numberOfBytes": "32",
						"value": "t_array(t_uint256)8_storage"
					},
					"t_mapping(t_address,t_uint256)": {
						"encoding": "mapping",
						"key": "t_address",
						"label": "mapping(address => uint256)",
						"numberOfBytes": "32",
						"value": "t_uint256"
					},
					"t_uint256": {
						"encoding": "inplace",
						"label": "uint256",
						"numberOfBytes": "32"
					}
				}
			},
			"userdoc": {
				"kind": "user",
				"methods": {},
				"version": 1
			}
		}
	}
}