{
	"data": {
		"bytecode": {
			"linkReferences": {},
			"object": "6080604052348015600e575f80fd5b50335f806101000a81548173ffffffffffffffffffffffffffffffffffffffff021916908373ffffffffffffffffffffffffffffffffffffffff160217905550610d748061005b5f395ff3fe608060405234801561000f575f80fd5b5060043610610055575f3560e01c806309ee57a5146100595780630e5b35b3146100895780635113940d146100a5578063554fec0e146100c35780639257e04b146100f3575b5f80fd5b610073600480360381019061006e9190610818565b61010f565b6040516100809190610865565b60405180910390f35b6100a3600480360381019061009e919061087e565b610133565b005b6100ad610500565b6040516100ba91906108b8565b60405180910390f35b6100dd60048036038101906100d8919061087e565b610523565b6040516100ea9190610865565b60405180910390f35b61010d60048036038101906101089190610a0f565b610538565b005b6001602052815f5260405f208160088110610128575f80fd5b015f91509150505481565b5f8054906101000a900473ffffffffffffffffffffffffffffffffffffffff1673ffffffffffffffffffffffffffffffffffffffff163373ffffffffffffffffffffffffffffffffffffffff16146101c0576040517f08c379a00000000000000000000000000000000000000000000000000000000081526004016101b790610ace565b60405180910390fd5b5f73ffffffffffffffffffffffffffffffffffffffff168173ffffffffffffffffffffffffffffffffffffffff160361022e576040517f08c379a000000000000000000000000000000000000000000000000000000000815260040161022590610b36565b60405180910390fd5b5f60015f8373ffffffffffffffffffffffffffffffffffffffff1673ffffffffffffffffffffffffffffffffffffffff1681526020019081526020015f206008806020026040519081016040528092919082600880156102a3576020028201915b81548152602001906001019080831161028f575b505050505090505f815f600881106102be576102bd610b54565b5b602002015190505f826001600881106102da576102d9610b54565b5b602002015190505f836002600881106102f6576102f5610b54565b5b602002015190505f8460036008811061031257610311610b54565b5b602002015190505f8560046008811061032e5761032d610b54565b5b602002015190505f8660056008811061034a57610349610b54565b5b602002015190505f8760066008811061036657610365610b54565b5b602002015190505f8860076008811061038257610381610b54565b5b602002015190505f6103ab888a6103999190610bae565b8460026103a69190610be1565b6106d2565b90505f6103f96103f2600687898b8d886103c59190610bae565b6103cf9190610bae565b6103d99190610bae565b6103e39190610bae565b6103ed9190610c4f565b6106ea565b600a61070b565b90505f8084111561044d5761044661043f600a8660066104199190610be1565b8560046104269190610be1565b6104309190610bae565b61043a9190610c4f565b6106ea565b600a61070b565b9050610461565b600682101561045c575f61045e565b815b90505b8060025f8f73ffffffffffffffffffffffffffffffffffffffff1673ffffffffffffffffffffffffffffffffffffffff1681526020019081526020015f20819055508c73ffffffffffffffffffffffffffffffffffffffff167fac80656a956c0ba44c39f72601bfb63ca77157f4a544bb9cea7bbc770ffb7412826040516104e99190610865565b60405180910390a250505050505050505050505050565b5f8054906101000a900473ffffffffffffffffffffffffffffffffffffffff1681565b6002602052805f5260405f205f915090505481565b5f8054906101000a900473ffffffffffffffffffffffffffffffffffffffff1673ffffffffffffffffffffffffffffffffffffffff163373ffffffffffffffffffffffffffffffffffffffff16146105c5576040517f08c379a00000000000000000000000000000000000000000000000000000000081526004016105bc90610ace565b60405180910390fd5b5f73ffffffffffffffffffffffffffffffffffffffff168273ffffffffffffffffffffffffffffffffffffffff1603610633576040517f08c379a000000000000000000000000000000000000000000000000000000000815260040161062a90610b36565b60405180910390fd5b8060015f8473ffffffffffffffffffffffffffffffffffffffff1673ffffffffffffffffffffffffffffffffffffffff1681526020019081526020015f2090600861067f929190610723565b508173ffffffffffffffffffffffffffffffffffffffff167f14db761f3fcdaad8975837aa53665a05b9c99eb3b953ec9e7ce93acbb770dcc0826040516106c69190610d24565b60405180910390a25050565b5f8183116106e057816106e2565b825b905092915050565b5f600a6005836106fa9190610bae565b6107049190610c4f565b9050919050565b5f818310610719578161071b565b825b905092915050565b8260088101928215610752579160200282015b82811115610751578251825591602001919060010190610736565b5b50905061075f9190610763565b5090565b5b8082111561077a575f815f905550600101610764565b5090565b5f604051905090565b5f80fd5b5f73ffffffffffffffffffffffffffffffffffffffff82169050919050565b5f6107b48261078b565b9050919050565b6107c4816107aa565b81146107ce575f80fd5b50565b5f813590506107df816107bb565b92915050565b5f819050919050565b6107f7816107e5565b8114610801575f80fd5b50565b5f81359050610812816107ee565b92915050565b5f806040838503121561082e5761082d610787565b5b5f61083b858286016107d1565b925050602061084c85828601610804565b9150509250929050565b61085f816107e5565b82525050565b5f6020820190506108785f830184610856565b92915050565b5f6020828403121561089357610892610787565b5b5f6108a0848285016107d1565b91505092915050565b6108b2816107aa565b82525050565b5f6020820190506108cb5f8301846108a9565b92915050565b5f80fd5b5f601f19601f8301169050919050565b7f4e487b71000000000000000000000000000000000000000000000000000000005f52604160045260245ffd5b61091b826108d5565b810181811067ffffffffffffffff8211171561093a576109396108e5565b5b80604052505050565b5f61094c61077e565b90506109588282610912565b919050565b5f67ffffffffffffffff821115610977576109766108e5565b5b602082029050919050565b5f80fd5b5f6109986109938461095d565b610943565b905080602084028301858111156109b2576109b1610982565b5b835b818110156109db57806109c78882610804565b8452602084019350506020810190506109b4565b5050509392505050565b5f82601f8301126109f9576109f86108d1565b5b6008610a06848285610986565b91505092915050565b5f806101208385031215610a2657610a25610787565b5b5f610a33858286016107d1565b9250506020610a44858286016109e5565b9150509250929050565b5f82825260208201905092915050565b7f4f6e6c79207468652070726f666573736f722063616e20706572666f726d20745f8201527f68697320616374696f6e2e000000000000000000000000000000000000000000602082015250565b5f610ab8602b83610a4e565b9150610ac382610a5e565b604082019050919050565b5f6020820190508181035f830152610ae581610aac565b9050919050565b7f496e76616c69642073747564656e7420616464726573732e00000000000000005f82015250565b5f610b20601883610a4e565b9150610b2b82610aec565b602082019050919050565b5f6020820190508181035f830152610b4d81610b14565b9050919050565b7f4e487b71000000000000000000000000000000000000000000000000000000005f52603260045260245ffd5b7f4e487b71000000000000000000000000000000000000000000000000000000005f52601160045260245ffd5b5f610bb8826107e5565b9150610bc3836107e5565b9250828201905080821115610bdb57610bda610b81565b5b92915050565b5f610beb826107e5565b9150610bf6836107e5565b9250828202610c04816107e5565b91508282048414831517610c1b57610c1a610b81565b5b5092915050565b7f4e487b71000000000000000000000000000000000000000000000000000000005f52601260045260245ffd5b5f610c59826107e5565b9150610c64836107e5565b925082610c7457610c73610c22565b5b828204905092915050565b5f60089050919050565b5f81905092915050565b5f819050919050565b610ca5816107e5565b82525050565b5f610cb68383610c9c565b60208301905092915050565b5f602082019050919050565b610cd781610c7f565b610ce18184610c89565b9250610cec82610c93565b805f5b83811015610d1c578151610d038782610cab565b9650610d0e83610cc2565b925050600181019050610cef565b505050505050565b5f61010082019050610d385f830184610cce565b9291505056fea26469706673582212200b062979121c55aac6331da758a0c9552d6c3bc7af2418f1590d92718965712b64736f6c634300081a0033",
			"opcodes": "PUSH1 0x80 PUSH1 0x40 MSTORE CALLVALUE DUP1 ISZERO PUSH1 0xE JUMPI PUSH0 DUP1 REVERT JUMPDEST POP CALLER PUSH0 DUP1 PUSH2 0x100 EXP DUP2 SLOAD DUP2 PUSH20 0xFFFFFFFFFFFFFFFFFFFFFFFFFFFFFFFFFFFFFFFF MUL NOT AND SWAP1 DUP4 PUSH20 0xFFFFFFFFFFFFFFFFFFFFFFFFFFFFFFFFFFFFFFFF AND MUL OR SWAP1 SSTORE POP PUSH2 0xD74 DUP1 PUSH2 0x5B PUSH0 CODECOPY PUSH0 RETURN INVALID PUSH1 0x80 PUSH1 0x40 MSTORE CALLVALUE DUP1 ISZERO PUSH2 0xF JUMPI PUSH0 DUP1 REVERT JUMPDEST POP PUSH1 0x4 CALLDATASIZE LT PUSH2 0x55 JUMPI PUSH0 CALLDATALOAD PUSH1 0xE0 SHR DUP1 PUSH4 0x9EE57A5 EQ PUSH2 0x59 JUMPI DUP1 PUSH4 0xE5B35B3 EQ PUSH2 0x89 JUMPI DUP1 PUSH4 0x5113940D EQ PUSH2 0xA5 JUMPI DUP1 PUSH4 0x554FEC0E EQ PUSH2 0xC3 JUMPI DUP1 PUSH4 0x9257E04B EQ PUSH2 0xF3 JUMPI JUMPDEST PUSH0 DUP1 REVERT JUMPDEST PUSH2 0x73 PUSH1 0x4 DUP1 CALLDATASIZE SUB DUP2 ADD SWAP1 PUSH2 0x6E SWAP2 SWAP1 PUSH2 0x818 JUMP JUMPDEST PUSH2 0x10F JUMP JUMPDEST PUSH1 0x40 MLOAD PUSH2 0x80 SWAP2 SWAP1 PUSH2 0x865 JUMP JUMPDEST PUSH1 0x40 MLOAD DUP1 SWAP2 SUB SWAP1 RETURN JUMPDEST PUSH2 0xA3 PUSH1 0x4 DUP1 CALLDATASIZE SUB DUP2 ADD SWAP1 PUSH2 0x9E SWAP2 SWAP1 PUSH2 0x87E JUMP JUMPDEST PUSH2 0x133 JUMP JUMPDEST STOP JUMPDEST PUSH2 0xAD PUSH2 0x500 JUMP JUMPDEST PUSH1 0x40 MLOAD PUSH2 0xBA SWAP2 SWAP1 PUSH2 0x8B8 JUMP JUMPDEST PUSH1 0x40 MLOAD DUP1 SWAP2 SUB SWAP1 RETURN JUMPDEST PUSH2 0xDD PUSH1 0x4 DUP1 CALLDATASIZE SUB DUP2 ADD SWAP1 PUSH2 0xD8 SWAP2 SWAP1 PUSH2 0x87E JUMP JUMPDEST PUSH2 0x523 JUMP JUMPDEST PUSH1 0x40 MLOAD PUSH2 0xEA SWAP2 SWAP1 PUSH2 0x865 JUMP JUMPDEST PUSH1 0x40 MLOAD DUP1 SWAP2 SUB SWAP1 RETURN JUMPDEST PUSH2 0x10D PUSH1 0x4 DUP1 CALLDATASIZE SUB DUP2 ADD SWAP1 PUSH2 0x108 SWAP2 SWAP1 PUSH2 0xA0F JUMP JUMPDEST PUSH2 0x538 JUMP JUMPDEST STOP JUMPDEST PUSH1 0x1 PUSH1 0x20 MSTORE DUP2 PUSH0 MSTORE PUSH1 0x40 PUSH0 KECCAK256 DUP2 PUSH1 0x8 DUP2 LT PUSH2 0x128 JUMPI PUSH0 DUP1 REVERT JUMPDEST ADD PUSH0 SWAP2 POP SWAP2 POP POP SLOAD DUP2 JUMP JUMPDEST PUSH0 DUP1 SLOAD SWAP1 PUSH2 0x100 EXP SWAP1 DIV PUSH20 0xFFFFFFFFFFFFFFFFFFFFFFFFFFFFFFFFFFFFFFFF AND PUSH20 0xFFFFFFFFFFFFFFFFFFFFFFFFFFFFFFFFFFFFFFFF AND CALLER PUSH20 0xFFFFFFFFFFFFFFFFFFFFFFFFFFFFFFFFFFFFFFFF AND EQ PUSH2 0x1C0 JUMPI PUSH1 0x40 MLOAD PUSH32 0x8C379A000000000000000000000000000000000000000000000000000000000 DUP2 MSTORE PUSH1 0x4 ADD PUSH2 0x1B7 SWAP1 PUSH2 0xACE JUMP JUMPDEST PUSH1 0x40 MLOAD DUP1 SWAP2 SUB SWAP1 REVERT JUMPDEST PUSH0 PUSH20 0xFFFFFFFFFFFFFFFFFFFFFFFFFFFFFFFFFFFFFFFF AND DUP2 PUSH20 0xFFFFFFFFFFFFFFFFFFFFFFFFFFFFFFFFFFFFFFFF AND SUB PUSH2 0x22E JUMPI PUSH1 0x40 MLOAD PUSH32 0x8C379A000000000000000000000000000000000000000000000000000000000 DUP2 MSTORE PUSH1 0x4 ADD PUSH2 0x225 SWAP1 PUSH2 0xB36 JUMP JUMPDEST PUSH1 0x40 MLOAD DUP1 SWAP2 SUB SWAP1 REVERT JUMPDEST PUSH0 PUSH1 0x1 PUSH0 DUP4 PUSH20 0xFFFFFFFFFFFFFFFFFFFFFFFFFFFFFFFFFFFFFFFF AND PUSH20 0xFFFFFFFFFFFFFFFFFFFFFFFFFFFFFFFFFFFFFFFF AND DUP2 MSTORE PUSH1 0x20 ADD SWAP1 DUP2 MSTORE PUSH1 0x20 ADD PUSH0 KECCAK256 PUSH1 0x8 DUP1 PUSH1 0x20 MUL PUSH1 0x40 MLOAD SWAP1 DUP2 ADD PUSH1 0x40 MSTORE DUP1 SWAP3 SWAP2 SWAP1 DUP3 PUSH1 0x8 DUP1 ISZERO PUSH2 0x2A3 JUMPI PUSH1 0x20 MUL DUP3 ADD SWAP2 JUMPDEST DUP2 SLOAD DUP2 MSTORE PUSH1 0x20 ADD SWAP1 PUSH1 0x1 ADD SWAP1 DUP1 DUP4 GT PUSH2 0x28F JUMPI JUMPDEST POP POP POP POP POP SWAP1 POP PUSH0 DUP2 PUSH0 PUSH1 0x8 DUP2 LT PUSH2 0x2BE JUMPI PUSH2 0x2BD PUSH2 0xB54 JUMP JUMPDEST JUMPDEST PUSH1 0x20 MUL ADD MLOAD SWAP1 POP PUSH0 DUP3 PUSH1 0x1 PUSH1 0x8 DUP2 LT PUSH2 0x2DA JUMPI PUSH2 0x2D9 PUSH2 0xB54 JUMP JUMPDEST JUMPDEST PUSH1 0x20 MUL ADD MLOAD SWAP1 POP PUSH0 DUP4 PUSH1 0x2 PUSH1 0x8 DUP2 LT PUSH2 0x2F6 JUMPI PUSH2 0x2F5 PUSH2 0xB54 JUMP JUMPDEST JUMPDEST PUSH1 0x20 MUL ADD MLOAD SWAP1 POP PUSH0 DUP5 PUSH1 0x3 PUSH1 0x8 DUP2 LT PUSH2 0x312 JUMPI PUSH2 0x311 PUSH2 0xB54 JUMP JUMPDEST JUMPDEST PUSH1 0x20 MUL ADD MLOAD SWAP1 POP PUSH0 DUP6 PUSH1 0x4 PUSH1 0x8 DUP2 LT PUSH2 0x32E JUMPI PUSH2 0x32D PUSH2 0xB54 JUMP JUMPDEST JUMPDEST PUSH1 0x20 MUL ADD MLOAD SWAP1 POP PUSH0 DUP7 PUSH1 0x5 PUSH1 0x8 DUP2 LT PUSH2 0x34A JUMPI PUSH2 0x349 PUSH2 0xB54 JUMP JUMPDEST JUMPDEST PUSH1 0x20 MUL ADD MLOAD SWAP1 POP PUSH0 DUP8 PUSH1 0x6 PUSH1 0x8 DUP2 LT PUSH2 0x366 JUMPI PUSH2 0x365 PUSH2 0xB54 JUMP JUMPDEST JUMPDEST PUSH1 0x20 MUL ADD MLOAD SWAP1 POP PUSH0 DUP9 PUSH1 0x7 PUSH1 0x8 DUP2 LT PUSH2 0x382 JUMPI PUSH2 0x381 PUSH2 0xB54 JUMP JUMPDEST JUMPDEST PUSH1 0x20 MUL ADD MLOAD SWAP1 POP PUSH0 PUSH2 0x3AB DUP9 DUP11 PUSH2 0x399 SWAP2 SWAP1 PUSH2 0xBAE JUMP JUMPDEST DUP5 PUSH1 0x2 PUSH2 0x3A6 SWAP2 SWAP1 PUSH2 0xBE1 JUMP JUMPDEST PUSH2 0x6D2 JUMP JUMPDEST SWAP1 POP PUSH0 PUSH2 0x3F9 PUSH2 0x3F2 PUSH1 0x6 DUP8 DUP10 DUP12 DUP14 DUP9 PUSH2 0x3C5 SWAP2 SWAP1 PUSH2 0xBAE JUMP JUMPDEST PUSH2 0x3CF SWAP2 SWAP1 PUSH2 0xBAE JUMP JUMPDEST PUSH2 0x3D9 SWAP2 SWAP1 PUSH2 0xBAE JUMP JUMPDEST PUSH2 0x3E3 SWAP2 SWAP1 PUSH2 0xBAE JUMP JUMPDEST PUSH2 0x3ED SWAP2 SWAP1 PUSH2 0xC4F JUMP JUMPDEST PUSH2 0x6EA JUMP JUMPDEST PUSH1 0xA PUSH2 0x70B JUMP JUMPDEST SWAP1 POP PUSH0 DUP1 DUP5 GT ISZERO PUSH2 0x44D JUMPI PUSH2 0x446 PUSH2 0x43F PUSH1 0xA DUP7 PUSH1 0x6 PUSH2 0x419 SWAP2 SWAP1 PUSH2 0xBE1 JUMP JUMPDEST DUP6 PUSH1 0x4 PUSH2 0x426 SWAP2 SWAP1 PUSH2 0xBE1 JUMP JUMPDEST PUSH2 0x430 SWAP2 SWAP1 PUSH2 0xBAE JUMP JUMPDEST PUSH2 0x43A SWAP2 SWAP1 PUSH2 0xC4F JUMP JUMPDEST PUSH2 0x6EA JUMP JUMPDEST PUSH1 0xA PUSH2 0x70B JUMP JUMPDEST SWAP1 POP PUSH2 0x461 JUMP JUMPDEST PUSH1 0x6 DUP3 LT ISZERO PUSH2 0x45C JUMPI PUSH0 PUSH2 0x45E JUMP JUMPDEST DUP2 JUMPDEST SWAP1 POP JUMPDEST DUP1 PUSH1 0x2 PUSH0 DUP16 PUSH20 0xFFFFFFFFFFFFFFFFFFFFFFFFFFFFFFFFFFFFFFFF AND PUSH20 0xFFFFFFFFFFFFFFFFFFFFFFFFFFFFFFFFFFFFFFFF AND DUP2 MSTORE PUSH1 0x20 ADD SWAP1 DUP2 MSTORE PUSH1 0x20 ADD PUSH0 KECCAK256 DUP2 SWAP1 SSTORE POP DUP13 PUSH20 0xFFFFFFFFFFFFFFFFFFFFFFFFFFFFFFFFFFFFFFFF AND PUSH32 0xAC80656A956C0BA44C39F72601BFB63CA77157F4A544BB9CEA7BBC770FFB7412 DUP3 PUSH1 0x40 MLOAD PUSH2 0x4E9 SWAP2 SWAP1 PUSH2 0x865 JUMP JUMPDEST PUSH1 0x40 MLOAD DUP1 SWAP2 SUB SWAP1 LOG2 POP POP POP POP POP POP POP POP POP POP POP POP POP JUMP JUMPDEST PUSH0 DUP1 SLOAD SWAP1 PUSH2 0x100 EXP SWAP1 DIV PUSH20 0xFFFFFFFFFFFFFFFFFFFFFFFFFFFFFFFFFFFFFFFF AND DUP2 JUMP JUMPDEST PUSH1 0x2 PUSH1 0x20 MSTORE DUP1 PUSH0 MSTORE PUSH1 0x40 PUSH0 KECCAK256 PUSH0 SWAP2 POP SWAP1 POP SLOAD DUP2 JUMP JUMPDEST PUSH0 DUP1 SLOAD SWAP1 PUSH2 0x100 EXP SWAP1 DIV PUSH20 0xFFFFFFFFFFFFFFFFFFFFFFFFFFFFFFFFFFFFFFFF AND PUSH20 0xFFFFFFFFFFFFFFFFFFFFFFFFFFFFFFFFFFFFFFFF AND CALLER PUSH20 0xFFFFFFFFFFFFFFFFFFFFFFFFFFFFFFFFFFFFFFFF AND EQ PUSH2 0x5C5 JUMPI PUSH1 0x40 MLOAD PUSH32 0x8C379A000000000000000000000000000000000000000000000000000000000 DUP2 MSTORE PUSH1 0x4 ADD PUSH2 0x5BC SWAP1 PUSH2 0xACE JUMP JUMPDEST PUSH1 0x40 MLOAD DUP1 SWAP2 SUB SWAP1 REVERT JUMPDEST PUSH0 PUSH20 0xFFFFFFFFFFFFFFFFFFFFFFFFFFFFFFFFFFFFFFFF AND DUP3 PUSH20 0xFFFFFFFFFFFFFFFFFFFFFFFFFFFFFFFFFFFFFFFF AND SUB PUSH2 0x633 JUMPI PUSH1 0x40 MLOAD PUSH32 0x8C379A000000000000000000000000000000000000000000000000000000000 DUP2 MSTORE PUSH1 0x4 ADD PUSH2 0x62A SWAP1 PUSH2 0xB36 JUMP JUMPDEST PUSH1 0x40 MLOAD DUP1 SWAP2 SUB SWAP1 REVERT JUMPDEST DUP1 PUSH1 0x1 PUSH0 DUP5 PUSH20 0xFFFFFFFFFFFFFFFFFFFFFFFFFFFFFFFFFFFFFFFF AND PUSH20 0xFFFFFFFFFFFFFFFFFFFFFFFFFFFFFFFFFFFFFFFF AND DUP2 MSTORE PUSH1 0x20 ADD SWAP1 DUP2 MSTORE PUSH1 0x20 ADD PUSH0 KECCAK256 SWAP1 PUSH1 0x8 PUSH2 0x67F SWAP3 SWAP2 SWAP1 PUSH2 0x723 JUMP JUMPDEST POP DUP2 PUSH20 0xFFFFFFFFFFFFFFFFFFFFFFFFFFFFFFFFFFFFFFFF AND PUSH32 0x14DB761F3FCDAAD8975837AA53665A05B9C99EB3B953EC9E7CE93ACBB770DCC0 DUP3 PUSH1 0x40 MLOAD PUSH2 0x6C6 SWAP2 SWAP1 PUSH2 0xD24 JUMP JUMPDEST PUSH1 0x40 MLOAD DUP1 SWAP2 SUB SWAP1 LOG2 POP POP JUMP JUMPDEST PUSH0 DUP2 DUP4 GT PUSH2 0x6E0 JUMPI DUP2 PUSH2 0x6E2 JUMP JUMPDEST DUP3 JUMPDEST SWAP1 POP SWAP3 SWAP2 POP POP JUMP JUMPDEST PUSH0 PUSH1 0xA PUSH1 0x5 DUP4 PUSH2 0x6FA SWAP2 SWAP1 PUSH2 0xBAE JUMP JUMPDEST PUSH2 0x704 SWAP2 SWAP1 PUSH2 0xC4F JUMP JUMPDEST SWAP1 POP SWAP2 SWAP1 POP JUMP JUMPDEST PUSH0 DUP2 DUP4 LT PUSH2 0x719 JUMPI DUP2 PUSH2 0x71B JUMP JUMPDEST DUP3 JUMPDEST SWAP1 POP SWAP3 SWAP2 POP POP JUMP JUMPDEST DUP3 PUSH1 0x8 DUP2 ADD SWAP3 DUP3 ISZERO PUSH2 0x752 JUMPI SWAP2 PUSH1 0x20 MUL DUP3 ADD JUMPDEST DUP3 DUP2 GT ISZERO PUSH2 0x751 JUMPI DUP3 MLOAD DUP3 SSTORE SWAP2 PUSH1 0x20 ADD SWAP2 SWAP1 PUSH1 0x1 ADD SWAP1 PUSH2 0x736 JUMP JUMPDEST JUMPDEST POP SWAP1 POP PUSH2 0x75F SWAP2 SWAP1 PUSH2 0x763 JUMP JUMPDEST POP SWAP1 JUMP JUMPDEST JUMPDEST DUP1 DUP3 GT ISZERO PUSH2 0x77A JUMPI PUSH0 DUP2 PUSH0 SWAP1 SSTORE POP PUSH1 0x1 ADD PUSH2 0x764 JUMP JUMPDEST POP SWAP1 JUMP JUMPDEST PUSH0 PUSH1 0x40 MLOAD SWAP1 POP SWAP1 JUMP JUMPDEST PUSH0 DUP1 REVERT JUMPDEST PUSH0 PUSH20 0xFFFFFFFFFFFFFFFFFFFFFFFFFFFFFFFFFFFFFFFF DUP3 AND SWAP1 POP SWAP2 SWAP1 POP JUMP JUMPDEST PUSH0 PUSH2 0x7B4 DUP3 PUSH2 0x78B JUMP JUMPDEST SWAP1 POP SWAP2 SWAP1 POP JUMP JUMPDEST PUSH2 0x7C4 DUP2 PUSH2 0x7AA JUMP JUMPDEST DUP2 EQ PUSH2 0x7CE JUMPI PUSH0 DUP1 REVERT JUMPDEST POP JUMP JUMPDEST PUSH0 DUP2 CALLDATALOAD SWAP1 POP PUSH2 0x7DF DUP2 PUSH2 0x7BB JUMP JUMPDEST SWAP3 SWAP2 POP POP JUMP JUMPDEST PUSH0 DUP2 SWAP1 POP SWAP2 SWAP1 POP JUMP JUMPDEST PUSH2 0x7F7 DUP2 PUSH2 0x7E5 JUMP JUMPDEST DUP2 EQ PUSH2 0x801 JUMPI PUSH0 DUP1 REVERT JUMPDEST POP JUMP JUMPDEST PUSH0 DUP2 CALLDATALOAD SWAP1 POP PUSH2 0x812 DUP2 PUSH2 0x7EE JUMP JUMPDEST SWAP3 SWAP2 POP POP JUMP JUMPDEST PUSH0 DUP1 PUSH1 0x40 DUP4 DUP6 SUB SLT ISZERO PUSH2 0x82E JUMPI PUSH2 0x82D PUSH2 0x787 JUMP JUMPDEST JUMPDEST PUSH0 PUSH2 0x83B DUP6 DUP3 DUP7 ADD PUSH2 0x7D1 JUMP JUMPDEST SWAP3 POP POP PUSH1 0x20 PUSH2 0x84C DUP6 DUP3 DUP7 ADD PUSH2 0x804 JUMP JUMPDEST SWAP2 POP POP SWAP3 POP SWAP3 SWAP1 POP JUMP JUMPDEST PUSH2 0x85F DUP2 PUSH2 0x7E5 JUMP JUMPDEST DUP3 MSTORE POP POP JUMP JUMPDEST PUSH0 PUSH1 0x20 DUP3 ADD SWAP1 POP PUSH2 0x878 PUSH0 DUP4 ADD DUP5 PUSH2 0x856 JUMP JUMPDEST SWAP3 SWAP2 POP POP JUMP JUMPDEST PUSH0 PUSH1 0x20 DUP3 DUP5 SUB SLT ISZERO PUSH2 0x893 JUMPI PUSH2 0x892 PUSH2 0x787 JUMP JUMPDEST JUMPDEST PUSH0 PUSH2 0x8A0 DUP5 DUP3 DUP6 ADD PUSH2 0x7D1 JUMP JUMPDEST SWAP2 POP POP SWAP3 SWAP2 POP POP JUMP JUMPDEST PUSH2 0x8B2 DUP2 PUSH2 0x7AA JUMP JUMPDEST DUP3 MSTORE POP POP JUMP JUMPDEST PUSH0 PUSH1 0x20 DUP3 ADD SWAP1 POP PUSH2 0x8CB PUSH0 DUP4 ADD DUP5 PUSH2 0x8A9 JUMP JUMPDEST SWAP3 SWAP2 POP POP JUMP JUMPDEST PUSH0 DUP1 REVERT JUMPDEST PUSH0 PUSH1 0x1F NOT PUSH1 0x1F DUP4 ADD AND SWAP1 POP SWAP2 SWAP1 POP JUMP JUMPDEST PUSH32 0x4E487B7100000000000000000000000000000000000000000000000000000000 PUSH0 MSTORE PUSH1 0x41 PUSH1 0x4 MSTORE PUSH1 0x24 PUSH0 REVERT JUMPDEST PUSH2 0x91B DUP3 PUSH2 0x8D5 JUMP JUMPDEST DUP2 ADD DUP2 DUP2 LT PUSH8 0xFFFFFFFFFFFFFFFF DUP3 GT OR ISZERO PUSH2 0x93A JUMPI PUSH2 0x939 PUSH2 0x8E5 JUMP JUMPDEST JUMPDEST DUP1 PUSH1 0x40 MSTORE POP POP POP JUMP JUMPDEST PUSH0 PUSH2 0x94C PUSH2 0x77E JUMP JUMPDEST SWAP1 POP PUSH2 0x958 DUP3 DUP3 PUSH2 0x912 JUMP JUMPDEST SWAP2 SWAP1 POP JUMP JUMPDEST PUSH0 PUSH8 0xFFFFFFFFFFFFFFFF DUP3 GT ISZERO PUSH2 0x977 JUMPI PUSH2 0x976 PUSH2 0x8E5 JUMP JUMPDEST JUMPDEST PUSH1 0x20 DUP3 MUL SWAP1 POP SWAP2 SWAP1 POP JUMP JUMPDEST PUSH0 DUP1 REVERT JUMPDEST PUSH0 PUSH2 0x998 PUSH2 0x993 DUP5 PUSH2 0x95D JUMP JUMPDEST PUSH2 0x943 JUMP JUMPDEST SWAP1 POP DUP1 PUSH1 0x20 DUP5 MUL DUP4 ADD DUP6 DUP2 GT ISZERO PUSH2 0x9B2 JUMPI PUSH2 0x9B1 PUSH2 0x982 JUMP JUMPDEST JUMPDEST DUP4 JUMPDEST DUP2 DUP2 LT ISZERO PUSH2 0x9DB JUMPI DUP1 PUSH2 0x9C7 DUP9 DUP3 PUSH2 0x804 JUMP JUMPDEST DUP5 MSTORE PUSH1 0x20 DUP5 ADD SWAP4 POP POP PUSH1 0x20 DUP2 ADD SWAP1 POP PUSH2 0x9B4 JUMP JUMPDEST POP POP POP SWAP4 SWAP3 POP POP POP JUMP JUMPDEST PUSH0 DUP3 PUSH1 0x1F DUP4 ADD SLT PUSH2 0x9F9 JUMPI PUSH2 0x9F8 PUSH2 0x8D1 JUMP JUMPDEST JUMPDEST PUSH1 0x8 PUSH2 0xA06 DUP5 DUP3 DUP6 PUSH2 0x986 JUMP JUMPDEST SWAP2 POP POP SWAP3 SWAP2 POP POP JUMP JUMPDEST PUSH0 DUP1 PUSH2 0x120 DUP4 DUP6 SUB SLT ISZERO PUSH2 0xA26 JUMPI PUSH2 0xA25 PUSH2 0x787 JUMP JUMPDEST JUMPDEST PUSH0 PUSH2 0xA33 DUP6 DUP3 DUP7 ADD PUSH2 0x7D1 JUMP JUMPDEST SWAP3 POP POP PUSH1 0x20 PUSH2 0xA44 DUP6 DUP3 DUP7 ADD PUSH2 0x9E5 JUMP JUMPDEST SWAP2 POP POP SWAP3 POP SWAP3 SWAP1 POP JUMP JUMPDEST PUSH0 DUP3 DUP3 MSTORE PUSH1 0x20 DUP3 ADD SWAP1 POP SWAP3 SWAP2 POP POP JUMP JUMPDEST PUSH32 0x4F6E6C79207468652070726F666573736F722063616E20706572666F726D2074 PUSH0 DUP3 ADD MSTORE PUSH32 0x68697320616374696F6E2E000000000000000000000000000000000000000000 PUSH1 0x20 DUP3 ADD MSTORE POP JUMP JUMPDEST PUSH0 PUSH2 0xAB8 PUSH1 0x2B DUP4 PUSH2 0xA4E JUMP JUMPDEST SWAP2 POP PUSH2 0xAC3 DUP3 PUSH2 0xA5E JUMP JUMPDEST PUSH1 0x40 DUP3 ADD SWAP1 POP SWAP2 SWAP1 POP JUMP JUMPDEST PUSH0 PUSH1 0x20 DUP3 ADD SWAP1 POP DUP2 DUP2 SUB PUSH0 DUP4 ADD MSTORE PUSH2 0xAE5 DUP2 PUSH2 0xAAC JUMP JUMPDEST SWAP1 POP SWAP2 SWAP1 POP JUMP JUMPDEST PUSH32 0x496E76616C69642073747564656E7420616464726573732E0000000000000000 PUSH0 DUP3 ADD MSTORE POP JUMP JUMPDEST PUSH0 PUSH2 0xB20 PUSH1 0x18 DUP4 PUSH2 0xA4E JUMP JUMPDEST SWAP2 POP PUSH2 0xB2B DUP3 PUSH2 0xAEC JUMP JUMPDEST PUSH1 0x20 DUP3 ADD SWAP1 POP SWAP2 SWAP1 POP JUMP JUMPDEST PUSH0 PUSH1 0x20 DUP3 ADD SWAP1 POP DUP2 DUP2 SUB PUSH0 DUP4 ADD MSTORE PUSH2 0xB4D DUP2 PUSH2 0xB14 JUMP JUMPDEST SWAP1 POP SWAP2 SWAP1 POP JUMP JUMPDEST PUSH32 0x4E487B7100000000000000000000000000000000000000000000000000000000 PUSH0 MSTORE PUSH1 0x32 PUSH1 0x4 MSTORE PUSH1 0x24 PUSH0 REVERT JUMPDEST PUSH32 0x4E487B7100000000000000000000000000000000000000000000000000000000 PUSH0 MSTORE PUSH1 0x11 PUSH1 0x4 MSTORE PUSH1 0x24 PUSH0 REVERT JUMPDEST PUSH0 PUSH2 0xBB8 DUP3 PUSH2 0x7E5 JUMP JUMPDEST SWAP2 POP PUSH2 0xBC3 DUP4 PUSH2 0x7E5 JUMP JUMPDEST SWAP3 POP DUP3 DUP3 ADD SWAP1 POP DUP1 DUP3 GT ISZERO PUSH2 0xBDB JUMPI PUSH2 0xBDA PUSH2 0xB81 JUMP JUMPDEST JUMPDEST SWAP3 SWAP2 POP POP JUMP JUMPDEST PUSH0 PUSH2 0xBEB DUP3 PUSH2 0x7E5 JUMP JUMPDEST SWAP2 POP PUSH2 0xBF6 DUP4 PUSH2 0x7E5 JUMP JUMPDEST SWAP3 POP DUP3 DUP3 MUL PUSH2 0xC04 DUP2 PUSH2 0x7E5 JUMP JUMPDEST SWAP2 POP DUP3 DUP3 DIV DUP5 EQ DUP4 ISZERO OR PUSH2 0xC1B JUMPI PUSH2 0xC1A PUSH2 0xB81 JUMP JUMPDEST JUMPDEST POP SWAP3 SWAP2 POP POP JUMP JUMPDEST PUSH32 0x4E487B7100000000000000000000000000000000000000000000000000000000 PUSH0 MSTORE PUSH1 0x12 PUSH1 0x4 MSTORE PUSH1 0x24 PUSH0 REVERT JUMPDEST PUSH0 PUSH2 0xC59 DUP3 PUSH2 0x7E5 JUMP JUMPDEST SWAP2 POP PUSH2 0xC64 DUP4 PUSH2 0x7E5 JUMP JUMPDEST SWAP3 POP DUP3 PUSH2 0xC74 JUMPI PUSH2 0xC73 PUSH2 0xC22 JUMP JUMPDEST JUMPDEST DUP3 DUP3 DIV SWAP1 POP SWAP3 SWAP2 POP POP JUMP JUMPDEST PUSH0 PUSH1 0x8 SWAP1 POP SWAP2 SWAP1 POP JUMP JUMPDEST PUSH0 DUP2 SWAP1 POP SWAP3 SWAP2 POP POP JUMP JUMPDEST PUSH0 DUP2 SWAP1 POP SWAP2 SWAP1 POP JUMP JUMPDEST PUSH2 0xCA5 DUP2 PUSH2 0x7E5 JUMP JUMPDEST DUP3 MSTORE POP POP JUMP JUMPDEST PUSH0 PUSH2 0xCB6 DUP4 DUP4 PUSH2 0xC9C JUMP JUMPDEST PUSH1 0x20 DUP4 ADD SWAP1 POP SWAP3 SWAP2 POP POP JUMP JUMPDEST PUSH0 PUSH1 0x20 DUP3 ADD SWAP1 POP SWAP2 SWAP1 POP JUMP JUMPDEST PUSH2 0xCD7 DUP2 PUSH2 0xC7F JUMP JUMPDEST PUSH2 0xCE1 DUP2 DUP5 PUSH2 0xC89 JUMP JUMPDEST SWAP3 POP PUSH2 0xCEC DUP3 PUSH2 0xC93 JUMP JUMPDEST DUP1 PUSH0 JUMPDEST DUP4 DUP2 LT ISZERO PUSH2 0xD1C JUMPI DUP2 MLOAD PUSH2 0xD03 DUP8 DUP3 PUSH2 0xCAB JUMP JUMPDEST SWAP7 POP PUSH2 0xD0E DUP4 PUSH2 0xCC2 JUMP JUMPDEST SWAP3 POP POP PUSH1 0x1 DUP2 ADD SWAP1 POP PUSH2 0xCEF JUMP JUMPDEST POP POP POP POP POP POP JUMP JUMPDEST PUSH0 PUSH2 0x100 DUP3 ADD SWAP1 POP PUSH2 0xD38 PUSH0 DUP4 ADD DUP5 PUSH2 0xCCE JUMP JUMPDEST SWAP3 SWAP2 POP POP JUMP INVALID LOG2 PUSH5 0x6970667358 0x22 SLT KECCAK256 SIGNEXTEND MOD 0x29 PUSH26 0x121C55AAC6331DA758A0C9552D6C3BC7AF2418F1590D92718965 PUSH18 0x2B64736F6C634300081A0033000000000000 "
		},
		"gasEstimates": {
			"creation": {
				"codeDepositCost": "688800",
				"executionCost": "24984",
				"totalCost": "713784"
			},
			"external": {
				"assignGrades(address,uint256[8])": "infinite",
				"computeFinalGrade(address)": "infinite",
				"finalGrades(address)": "2846",
				"grades(address,uint256)": "infinite",
				"professor()": "2527"
			},
			"internal": {
				"max(uint256,uint256)": "63",
				"min(uint256,uint256)": "63",
				"round(uint256)": "infinite"
			}
		},
		"methodIdentifiers": {
			"assignGrades(address,uint256[8])": "9257e04b",
			"computeFinalGrade(address)": "0e5b35b3",
			"finalGrades(address)": "554fec0e",
			"grades(address,uint256)": "09ee57a5",
			"professor()": "5113940d"
		}
	},
	"abi": [
		{
			"inputs": [],
			"stateMutability": "nonpayable",
			"type": "constructor"
		},
		{
			"anonymous": false,
			"inputs": [
				{
					"indexed": true,
					"internalType": "address",
					"name": "student",
					"type": "address"
				},
				{
					"indexed": false,
					"internalType": "uint256",
					"name": "finalGrade",
					"type": "uint256"
				}
			],
			"name": "FinalGradeComputed",
			"type": "event"
		},
		{
			"anonymous": false,
			"inputs": [
				{
					"indexed": true,
					"internalType": "address",
					"name": "student",
					"type": "address"
				},
				{
					"indexed": false,
					"internalType": "uint256[8]",
					"name": "grades",
					"type": "uint256[8]"
				}
			],
			"name": "GradesAssigned",
			"type": "event"
		},
		{
			"inputs": [
				{
					"internalType": "address",
					"name": "student",
					"type": "address"
				},
				{
					"internalType": "uint256[8]",
					"name": "_grades",
					"type": "uint256[8]"
				}
			],
			"name": "assignGrades",
			"outputs": [],
			"stateMutability": "nonpayable",
			"type": "function"
		},
		{
			"inputs": [
				{
					"internalType": "address",
					"name": "student",
					"type": "address"
				}
			],
			"name": "computeFinalGrade",
			"outputs": [],
			"stateMutability": "nonpayable",
			"type": "function"
		},
		{
			"inputs": [
				{
					"internalType": "address",
					"name": "",
					"type": "address"
				}
			],
			"name": "finalGrades",
			"outputs": [
				{
					"internalType": "uint256",
					"name": "",
					"type": "uint256"
				}
			],
			"stateMutability": "view",
			"type": "function"
		},
		{
			"inputs": [
				{
					"internalType": "address",
					"name": "",
					"type": "address"
				},
				{
					"internalType": "uint256",
					"name": "",
					"type": "uint256"
				}
			],
			"name": "grades",
			"outputs": [
				{
					"internalType": "uint256",
					"name": "",
					"type": "uint256"
				}
			],
			"stateMutability": "view",
			"type": "function"
		},
		{
			"inputs": [],
			"name": "professor",
			"outputs": [
				{
					"internalType": "address",
					"name": "",
					"type": "address"
				}
			],
			"stateMutability": "view",
			"type": "function"
		}
	]
}